:100000000C942A000C943F000C943F000C943F0089
:100010000C943F000C943F000C943F000C943F0064
:100020000C943F000C943F000C943F000C943F0054
:100030000C943F000C943F000C943F000C943F0044
:100040000C943F000C943F000C943F000C943F0034
:100050000C943F0011241FBECFE5D8E0DEBFCDBF1A
:1000600010E0A0E6B0E0ECE8F8E302C005900D92E5
:10007000A23DB107D9F70E94F00B0C94441C0C94DC
:100080000000EF92FF920F931F937B018C0120E001
:1000900030E040E05FE40E94410388238CF0C80117
:1000A000B70120E030E040E05FE40E94B9010E9427
:1000B000A1039B01AC01205030404040504806C095
:1000C000C801B7010E94A1039B01AC01B901CA019B
:1000D0001F910F91FF90EF900895A0E0B0E0E3E74B
:1000E000F0E00C940D1CDC012B01FA019C91923084
:1000F00008F439C1EB018881823008F433C19430AF
:1001000069F4843009F02FC111969C91119789816F
:10011000981709F428C1A2EAB0E025C1843009F497
:1001200021C18230A9F4923009F01DC19A01AD01BC
:1001300088E0EA010990AE01E90109929E0181502F
:10014000C1F7E201898111969C918923818308C1BD
:10015000923009F407C112962D903C901397EB0151
:100160008A819B811496AD90BD90CD90DC901797BD
:10017000EC80FD800E811F819101281B390BB90194
:1001800037FF04C066277727621B730B6032710547
:100190000CF061C0121613066CF537014801062EEB
:1001A00004C096948794779467940A94D2F721E0D8
:1001B00030E040E050E004C0220F331F441F551FC1
:1001C0006A95D2F721503040404050402E213F21C7
:1001D00040235123211531054105510521F021E02E
:1001E00030E040E050E079018A01E628F72808294C
:1001F00019293CC0232BD1F1260E371E35014601AB
:10020000062E04C096948794779467940A94D2F744
:1002100021E030E040E050E004C0220F331F441FD3
:10022000551F6A95D2F721503040404050402A2156
:100230003B214C215D21211531054105510521F05E
:1002400021E030E040E050E059016A01A628B728DB
:10025000C828D9280BC0821593052CF01C01AA24AC
:10026000BB24650103C0EE24FF24870111969C91F5
:10027000D20111968C91981709F445C0992339F051
:10028000A80197012A193B094C095D0906C0A6017E
:1002900095012E193F09400B510B57FD08C01182E3
:1002A0003382228224833583468357831DC081E0B5
:1002B00081833382228288279927DC01821B930B5A
:1002C000A40BB50B84839583A683B7830DC0220F3F
:1002D000331F441F551F24833583468357838281F0
:1002E000938101979383828324813581468157814D
:1002F000DA01C9010197A109B1098F5F9F4FAF4F83
:10030000BF4328F30BC0918333822282EA0CFB1C8B
:100310000C1D1D1DE482F5820683178383E0808314
:10032000248135814681578157FF1AC0C901AA2708
:1003300097FDA095BA2F81709070A070B0705695FF
:10034000479537952795822B932BA42BB52B848328
:100350009583A683B7838281938101969383828359
:10036000DF0101C0D201CD01CDB7DEB7E2E10C94CF
:10037000291CA0E2B0E0EFEBF1E00C94191C6983BA
:100380007A838B839C832D833E834F835887E9E058
:10039000EE2EF12CEC0EFD1ECE010196B7010E944F
:1003A000CA048E010F5E1F4FCE010596B8010E9450
:1003B000CA048A8991E089278A8BC701B801AE01F6
:1003C000475E5F4F0E946D000E94F503A096E6E035
:1003D0000C94351CA0E2B0E0E0EFF1E00C94191CA5
:1003E00069837A838B839C832D833E834F835887D5
:1003F000F9E0EF2EF12CEC0EFD1ECE010196B701B7
:100400000E94CA048E010F5E1F4FCE010596B801EF
:100410000E94CA04C701B801AE01475E5F4F0E9447
:100420006D000E94F503A096E6E00C94351CA0E256
:10043000B0E0EDE1F2E00C940D1C69837A838B83CC
:100440009C832D833E834F835887CE010196BE0146
:10045000675F7F4F0E94CA04CE010596BE016F5EA2
:100460007F4F0E94CA049985923088F08989823032
:10047000C8F0943019F4823051F404C0843029F467
:10048000923081F482EA90E0C6C0923049F420E0D4
:100490009A858A89981321E02A87CE010996BBC0E4
:1004A000823049F420E09A858A89981321E02A8BCA
:1004B000CE014196B0C02D843E844F8458886D880B
:1004C0007E888F88988CEE24FF248701AA24BB2481
:1004D000650140E050E060E070E0E0E0F0E0C10184
:1004E00081709070892BE9F0E60CF71C081D191D2E
:1004F0009A01AB012A0D3B1D4C1D5D1D80E090E073
:10050000A0E0B0E0E614F7040805190520F481E046
:1005100090E0A0E0B0E0BA01A901480F591F6A1F9E
:100520007B1FAA0CBB1CCC1CDD1C97FE08C081E005
:1005300090E0A0E0B0E0A82AB92ACA2ADB2A3196C6
:10054000E032F10549F0660C771C881C991C569422
:10055000479437942794C3CFFA85EA892B893C893D
:100560008B859C85280F391F2E5F3F4F17C0CA010E
:1005700081709070892B61F016950795F794E79438
:1005800080E090E0A0E0B0E8E82AF92A0A2B1B2BD3
:1005900076956795579547952F5F3F4F77FDE7CF46
:1005A0000CC0440F551F661F771F17FD4160EE0CEE
:1005B000FF1C001F111F21503040403090E05907B0
:1005C00090E0690790E4790760F32B8F3C8FDB01A3
:1005D000CA018F779070A070B07080349105A1052A
:1005E000B10561F447FD0AC0E114F10401051105EC
:1005F00029F0405C5F4F6F4F7F4F40781A8EFE1797
:1006000011F081E08A8F4D8F5E8F6F8F78A383E02A
:10061000898FCE0149960E94F503A096E2E10C94E1
:10062000291CA8E1B0E0E7E1F3E00C94191C698310
:100630007A838B839C832D833E834F83588789E005
:10064000E82EF12CEC0EFD1ECE010196B7010E94A2
:10065000CA048E010F5E1F4FCE010596B8010E949D
:10066000CA048985823040F08989823028F0C70128
:10067000B8010E94420501C08FEF6896E6E00C9435
:10068000351CA8E1B0E0E7E4F3E00C94191C6983A1
:100690007A838B839C832D833E834F83588789E0A5
:1006A000E82EF12CEC0EFD1ECE010196B7010E9442
:1006B000CA048E010F5E1F4FCE010596B8010E943D
:1006C000CA048985823040F08989823028F0C701C8
:1006D000B8010E94420501C08FEF6896E6E00C94D5
:1006E000351CA8E1B0E0E7E7F3E00C94191C69833E
:1006F0007A838B839C832D833E834F83588789E045
:10070000E82EF12CEC0EFD1ECE010196B7010E94E1
:10071000CA048E010F5E1F4FCE010596B8010E94DC
:10072000CA048985823040F08989823028F0C70167
:10073000B8010E94420501C081E06896E6E00C9491
:10074000351CACE0B0E0E7EAF3E00C941D1C6983D3
:100750007A838B839C83CE010196BE016B5F7F4FB2
:100760000E94CA048D81823061F1823050F1843060
:1007700021F48E81882351F12EC02F81388537FDD9
:1007800020C06E812F3131051CF06623F9F023C0A3
:100790008EE190E0821B930B29853A854B855C8521
:1007A00004C056954795379527958A95D2F76623C5
:1007B000B1F050954095309521953F4F4F4F5F4F89
:1007C0000EC020E030E040E050E009C02FEF3FEFE6
:1007D0004FEF5FE704C020E030E040E050E8B901AF
:1007E000CA012C96E2E00C94391CDF92EF92FF9242
:1007F0000F931F93FC01E480F58006811781D1805F
:100800008081823048F480E090E0A0E1B0E0E82A06
:10081000F92A0A2B1B2BA5C0843009F49FC0823013
:1008200021F4EE24FF24870105C0E114F104010541
:10083000110519F4E0E0F0E096C0628173819FEF4A
:10084000623879070CF05BC022E83FEF261B370BBC
:100850002A3131052CF020E030E040E050E02AC0A1
:10086000B801A701022E04C0769567955795479564
:100870000A94D2F781E090E0A0E0B0E004C0880FD5
:10088000991FAA1FBB1F2A95D2F70197A109B10989
:100890008E219F21A023B1230097A105B10521F04E
:1008A00081E090E0A0E0B0E09A01AB01282B392B69
:1008B0004A2B5B2BDA01C9018F779070A070B07062
:1008C00080349105A105B10539F427FF09C0205CEA
:1008D0003F4F4F4F5F4F04C0215C3F4F4F4F5F4F23
:1008E000E0E0F0E02030A0E03A07A0E04A07A0E412
:1008F0005A0710F0E1E0F0E079018A0127C0603882
:10090000710564F5FB01E158FF4FD801C7018F77EE
:100910009070A070B07080349105A105B10539F4D4
:10092000E7FE0DC080E490E0A0E0B0E004C08FE3FB
:1009300090E0A0E0B0E0E80EF91E0A1F1B1F17FFB1
:1009400005C016950795F794E794319687E01695BC
:100950000795F794E7948A95D1F705C0EE24FF2414
:100960008701EFEFF0E06E2F679566276795902F70
:100970009F77D794DD24D7948E2F8695492F462BC9
:10098000582F5D29B701CA011F910F91FF90EF9079
:10099000DF900895FC01DB01408151812281622FAB
:1009A0006F7770E0221F2227221F9381892F880FE3
:1009B000822B282F30E0991F9927991F11969C931D
:1009C000119721153105A9F54115510561057105ED
:1009D00011F482E037C082E89FEF13969C938E93C8
:1009E00012979A01AB0167E0220F331F441F551F76
:1009F0006A95D1F783E08C930DC0220F331F441FFB
:100A0000551F12968D919C911397019713969C9365
:100A10008E931297203080E0380780E0480780E40A
:100A2000580758F314962D933D934D935C93179765
:100A300008952F3F310579F4411551056105710580
:100A400019F484E08C93089564FF03C081E08C93D3
:100A500012C01C9210C02F57304013963C932E9317
:100A6000129783E08C9387E0440F551F661F771F12
:100A70008A95D1F7706414964D935D936D937C9332
:100A8000179708951F93DC01FB019C91923008F4A5
:100A900047C08081823008F443C0943051F41196ED
:100AA0001C91843099F58181682F70E0611B710978
:100AB0003FC0843021F0923031F48230B9F181812D
:100AC000882389F12DC011961C9111978230F1F085
:100AD00081811817D9F412962D913C911397828138
:100AE00093818217930794F028173907BCF0149666
:100AF0008D919D910D90BC91A02D248135814681D1
:100B00005781281739074A075B0718F4112341F06A
:100B10000AC082179307A407B50740F4112319F000
:100B200061E070E005C06FEF7FEF02C060E070E051
:100B3000CB011F910895DF93CF930F92CDB7DEB70E
:100B400089838981982F917080E063E0492F0E940A
:100B5000DD0989818695982F917080E064E0492FA6
:100B60000E94DD09898186958695982F917080E095
:100B700065E0492F0E94DD098981869586958695D5
:100B8000982F917080E066E0492F0E94DD090F9058
:100B9000CF91DF910895DF93CF93CDB7DEB72E9736
:100BA0000FB6F894DEBF0FBECDBF80E062E041E03B
:100BB0000E94DD0980E090E0A0E0B0E48B879C8794
:100BC000AD87BE876B857C858D859E8520E030E076
:100BD0004AEF54E40E941702DC01CB018F8398870F
:100BE000A987BA876F81788589859A8520E030E06A
:100BF00040E85FE30E94710388232CF481E090E0D9
:100C00009E838D833FC06F81788589859A8520E09A
:100C10003FEF4FE757E40E94110318164CF56B8520
:100C20007C858D859E8520E030E040E251E40E9485
:100C30001702DC01CB01BC01CD010E944100DC01A7
:100C4000CB019E838D830FC088EC90E09C838B83C7
:100C50008B819C810197F1F79C838B838D819E8191
:100C600001979E838D838D819E81009769F714C0C3
:100C70006F81788589859A850E944100DC01CB01CE
:100C80009E838D838D819E819A83898389819A81B8
:100C90000197F1F79A83898380E062E040E00E9447
:100CA000DD092E960FB6F894DEBF0FBECDBFCF91F3
:100CB000DF910895DF93CF930F92CDB7DEB789838D
:100CC00080E061E040E00E94DD09898182958F70BB
:100CD0000E949B050E94CB0589810E949B050E9472
:100CE000CB050F90CF91DF910895DF93CF930F92B3
:100CF000CDB7DEB7898380E061E041E00E94DD0985
:100D0000898182958F700E949B050E94CB05898105
:100D10000E949B050E94CB050F90CF91DF91089513
:100D2000DF93CF93CDB7DEB72E970FB6F894DEBF23
:100D30000FBECDBF80E090E0A0E2B2E48B879C873D
:100D4000AD87BE876B857C858D859E8520E030E0F4
:100D50004AEF54E40E941702DC01CB018F8398878D
:100D6000A987BA876F81788589859A8520E030E0E8
:100D700040E85FE30E94710388232CF481E090E057
:100D80009E838D833FC06F81788589859A8520E019
:100D90003FEF4FE757E40E94110318164CF56B859F
:100DA0007C858D859E8520E030E040E251E40E9404
:100DB0001702DC01CB01BC01CD010E944100DC0126
:100DC000CB019E838D830FC088EC90E09C838B8346
:100DD0008B819C810197F1F79C838B838D819E8110
:100DE00001979E838D838D819E81009769F714C042
:100DF0006F81788589859A850E944100DC01CB014D
:100E00009E838D838D819E819A83898389819A8136
:100E10000197F1F79A83898382E00E949B050E94E3
:100E2000CB0582E00E949B050E94CB0588E00E94D2
:100E30009B050E94CB058CE00E945A0681E00E942F
:100E40005A062E960FB6F894DEBF0FBECDBFCF91D7
:100E5000DF910895DF93CF9300D00F92CDB7DEB727
:100E60009B838A8319828A819B81009789F00AC0BB
:100E7000EA81FB8180810E9475068A819B810196AF
:100E80009B838A83EA81FB818081882389F702C062
:100E900082E0898389810F900F900F90CF91DF912D
:100EA0000895DF93CF93CDB7DEB761970FB6F8946F
:100EB000DEBF0FBECDBF6E877F87888B998B1A826E
:100EC0008E859F85A889B9890097A105B10521F470
:100ED00080E30E94750669C08E859F85A889B989BF
:100EE000BB230CF043C08DE20E9475068E859F8562
:100EF000A889B989B095A095909581959F4FAF4FDE
:100F0000BF4F8E879F87A88BB98B30C08E859F85FA
:100F1000A889B9892AE030E040E050E0BC01CD0169
:100F20000E94D01BDC01CB018B838E859F85A88915
:100F3000B9892AE030E040E050E0BC01CD010E94D8
:100F4000D01BDA01C9018E879F87A88BB98B8A8154
:100F5000282F30E08B81482F405DCE010496FC01A4
:100F6000E20FF31F40838A818F5F8A838E859F857E
:100F7000A889B9890097A105B10541F68A818150F8
:100F8000898310C08981282F332727FD3095CE0112
:100F90000496FC01E20FF31F80810E94750689818F
:100FA00081508983898188236CF761960FB6F89404
:100FB000DEBF0FBECDBFCF91DF910895DF93CF93FA
:100FC00000D00F92CDB7DEB78A836B838B81882FD9
:100FD00090E00024969587950794969587950794B9
:100FE000982F802D982F8A81890F89838981806825
:100FF000898389810E945A060F900F900F90CF919C
:10100000DF910895DF93CF93CDB7DEB728970FB662
:10101000F894DEBF0FBECDBF8C837E836D834F837C
:1010200028871B828D819E81009759F18C81882FA2
:1010300090E0880F991F880F991F880F991F8A8346
:101040008A8180648A838A810E945A0619820EC02E
:101050008981282F30E08D819E81FC01E20FF31FF2
:1010600080810E94750689818F5F8983898188309C
:1010700078F38F8168850E94DE078C810E94750657
:1010800002C082E08B838B8128960FB6F894DEBF76
:101090000FBECDBFCF91DF910895DF93CF9300D0E6
:1010A00000D0CDB7DEB78A836B834C838A816B8196
:1010B0000E94DE07198206C080E20E9475068981BF
:1010C0008F5F898399818C819817B0F30F900F906F
:1010D0000F900F90CF91DF910895DF93CF9300D0C1
:1010E00000D0CDB7DEB789836A835C834B83898167
:1010F0006A810E94DE078B819C810E942A070F90E3
:101100000F900F900F90CF91DF910895DF93CF93C1
:10111000CDB7DEB728970FB6F894DEBF0FBECDBFB0
:101120008A836B834C8319828B81883008F0F3C0EB
:101130008C81882309F077C08A81282F30E0388796
:101140002F838F8198858130910559F12F813885C2
:10115000223031052CF48F819885009769F060C0AA
:101160002F8138852230310589F18F819885833030
:10117000910509F440C054C0AAE3B0E0EAE3F0E00E
:101180008081482F8B81282F30E081E090E0022E73
:1011900002C0880F991F0A94E2F7809584238C93EC
:1011A000BAC0A7E3B0E0E7E3F0E08081482F8B818D
:1011B000282F30E081E090E0022E02C0880F991FB6
:1011C0000A94E2F7809584238C93A5C0A4E3B0E051
:1011D000E4E3F0E08081482F8B81282F30E081E02C
:1011E00090E0022E02C0880F991F0A94E2F78095C2
:1011F00084238C9390C0A1E3B0E0E1E3F0E0808130
:10120000482F8B81282F30E081E090E0022E02C031
:10121000880F991F0A94E2F7809584238C937BC0F2
:1012200081E0898378C08C81813009F072C08A8125
:10123000282F30E03E832D838D819E818130910562
:1012400049F12D813E81223031052CF48D819E8122
:10125000009761F05BC02D813E812230310571F134
:101260008D819E8183309105E9F150C0AAE3B0E001
:10127000EAE3F0E08081482F8B81282F30E081E085
:1012800090E0022E02C0880F991F0A94E2F7842B87
:101290008C9341C0A7E3B0E0E7E3F0E08081482F02
:1012A0008B81282F30E081E090E0022E02C0880F71
:1012B000991F0A94E2F7842B8C932DC0A4E3B0E02D
:1012C000E4E3F0E08081482F8B81282F30E081E03B
:1012D00090E0022E02C0880F991F0A94E2F7842B37
:1012E0008C9319C0A1E3B0E0E1E3F0E08081482FE6
:1012F0008B81282F30E081E090E0022E02C0880F21
:10130000991F0A94E2F7842B8C9305C081E08983AE
:1013100002C081E08983898128960FB6F894DEBFE8
:101320000FBECDBFCF91DF910895DF93CF9300D053
:1013300000D00F92CDB7DEB78A836B8319828A8182
:10134000282F30E03D832C838C819D818130910555
:10135000D1F02C813D81223031052CF48C819D818E
:10136000009761F01FC02C813D812230310581F052
:101370008C819D818330910581F014C0EAE3F0E017
:101380008B81808311C0E7E3F0E08B8180830CC008
:10139000E4E3F0E08B81808307C0E1E3F0E08B8140
:1013A000808302C081E0898389810F900F900F9024
:1013B0000F900F90CF91DF910895DF93CF93CDB72A
:1013C000DEB728970FB6F894DEBF0FBECDBF8A8375
:1013D0006B834C8319828B81883008F0F3C08C8139
:1013E000882309F077C08A81282F30E038872F833F
:1013F0008F8198858130910559F12F813885223070
:1014000031052CF48F819885009769F060C02F8199
:1014100038852230310589F18F8198858330910597
:1014200009F440C054C0ABE3B0E0EBE3F0E08081EE
:10143000482F8B81282F30E081E090E0022E02C0FF
:10144000880F991F0A94E2F7809584238C93BAC081
:10145000A8E3B0E0E8E3F0E08081482F8B81282FFB
:1014600030E081E090E0022E02C0880F991F0A94BC
:10147000E2F7809584238C93A5C0A5E3B0E0E5E373
:10148000F0E08081482F8B81282F30E081E090E0D0
:10149000022E02C0880F991F0A94E2F780958423D8
:1014A0008C9390C0A2E3B0E0E2E3F0E08081482FAB
:1014B0008B81282F30E081E090E0022E02C0880F5F
:1014C000991F0A94E2F7809584238C937BC081E076
:1014D000898378C08C81813009F072C08A81282F7D
:1014E00030E03E832D838D819E818130910549F1CD
:1014F0002D813E81223031052CF48D819E81009713
:1015000061F05BC02D813E812230310571F18D810A
:101510009E8183309105E9F150C0ABE3B0E0EBE38D
:10152000F0E08081482F8B81282F30E081E090E02F
:10153000022E02C0880F991F0A94E2F7842B8C9325
:1015400041C0A8E3B0E0E8E3F0E08081482F8B8160
:10155000282F30E081E090E0022E02C0880F991F12
:101560000A94E2F7842B8C932DC0A5E3B0E0E5E369
:10157000F0E08081482F8B81282F30E081E090E0DF
:10158000022E02C0880F991F0A94E2F7842B8C93D5
:1015900019C0A2E3B0E0E2E3F0E08081482F8B8144
:1015A000282F30E081E090E0022E02C0880F991FC2
:1015B0000A94E2F7842B8C9305C081E0898302C0F2
:1015C00081E08983898128960FB6F894DEBF0FBE2B
:1015D000CDBFCF91DF910895DF93CF9300D000D09E
:1015E0000F92CDB7DEB78A836B8319828A81282F49
:1015F00030E03D832C838C819D8181309105D1F039
:101600002C813D81223031052CF48C819D81009705
:1016100061F01FC02C813D812230310581F08C8129
:101620009D818330910581F014C0EBE3F0E08B8164
:10163000808311C0E8E3F0E08B8180830CC0E5E398
:10164000F0E08B81808307C0E2E3F0E08B81808350
:1016500002C081E0898389810F900F900F900F90D5
:101660000F90CF91DF910895DF93CF93CDB7DEB781
:1016700027970FB6F894DEBF0FBECDBF8A836B836A
:101680005D834C8319828C819D81009709F47BC016
:101690008B81883008F074C08A81282F30E03F8326
:1016A0002E834E815F814130510559F18E819F819A
:1016B0008230910534F42E813F812115310569F086
:1016C0005CC04E815F814230510579F18E819F81EE
:1016D0008330910509F43DC050C0E9E3F0E080811A
:1016E000282F30E08B81882F90E0A90102C055950A
:1016F00047958A95E2F7CA018170EC81FD8180836C
:1017000044C0E6E3F0E08081282F30E08B81882F11
:1017100090E0A90102C0559547958A95E2F7CA0164
:101720008170EC81FD81808330C0E3E3F0E0808153
:10173000282F30E08B81882F90E0A90102C05595B9
:1017400047958A95E2F7CA018170EC81FD8180831B
:101750001CC0E0E3F0E08081282F30E08B81882FEF
:1017600090E0A90102C0559547958A95E2F7CA0114
:101770008170EC81FD81808308C081E0898305C090
:1017800081E0898302C082E08983898127960FB630
:10179000F894DEBF0FBECDBFCF91DF910895DF93E8
:1017A000CF93CDB7DEB7EAE3F0E08EE78083E7E3DF
:1017B000F0E01082E4E3F0E01082E1E3F0E0108278
:1017C000EBE3F0E01082E8E3F0E087E08083E5E31C
:1017D000F0E01082E2E3F0E01082CF91DF91089513
:1017E0000F931F93DF93CF93CDB7DEB7C456D1408D
:1017F0000FB6F894DEBF0FBECDBFCE01845E9E4F04
:10180000C45BDE4F99838883CC54D1408AEC90E04E
:10181000C25BDE4F99838883CE54D14098E0C05B91
:10182000DE4F9883C055D140C25BDE4FA881B9819D
:10183000CE54D1400C90C25BDE4FE881F981CE548A
:10184000D1403196C25BDE4FF983E883CE54D1405C
:10185000C45BDE4FA881B981CC54D1400C92C45BEB
:10186000DE4FE881F981CC54D1403196C45BDE4F24
:10187000F983E883CC54D140C05BDE4FF881C0557A
:10188000D140F150C05BDE4FF883C055D140C05B02
:10189000DE4F8881C055D140882331F6CE018C5D62
:1018A0009E4FCF5ADE4F99838883C155D140A2EC19
:1018B000B0E0CD5ADE4FB983A883C355D140B8E01C
:1018C000CB5ADE4FB883C555D140CD5ADE4FE881A3
:1018D000F981C355D1400080CD5ADE4F888199816E
:1018E000C355D1400196CD5ADE4F99838883C355A5
:1018F000D140CF5ADE4FA881B981C155D1400C9259
:10190000CF5ADE4FE881F981C155D1403196CF5A87
:10191000DE4FF983E883C155D140CB5ADE4FF881C1
:10192000C555D140F150CB5ADE4FF883C555D14053
:10193000CB5ADE4F8881C555D140882331F6CE0180
:10194000845D9E4FCA5ADE4F99838883C655D14025
:10195000AAEBB0E0C85ADE4FB983A883C855D1407E
:10196000B8E0C65ADE4FB883CA55D140C85ADE4FD8
:10197000E881F981C855D1400080C85ADE4F88817E
:101980009981C855D1400196C85ADE4F9983888302
:10199000C855D140CA5ADE4FA881B981C655D14039
:1019A0000C92CA5ADE4FE881F981C655D140319672
:1019B000CA5ADE4FF983E883C655D140C65ADE4F76
:1019C000F881CA55D140F150C65ADE4FF883CA5546
:1019D000D140C65ADE4F8881CA55D140882331F69E
:1019E000CE018C5C9E4F28E0FC01DF01822F1D920E
:1019F0008A95E9F7FE01EC5CFE4F8FE18183CE0111
:101A0000845C9E4FC55ADE4F99838883CB55D14065
:101A1000A2EBB0E0C35ADE4FB983A883CD55D140C5
:101A2000B8E0C15ADE4FB883CF55D140C35ADE4F1C
:101A3000E881F981CD55D1400080C35ADE4F8881BD
:101A40009981CD55D1400196C35ADE4F9983888341
:101A5000CD55D140C55ADE4FA881B981CB55D14073
:101A60000C92C55ADE4FE881F981CB55D1403196B1
:101A7000C55ADE4FF983E883CB55D140C15ADE4FBA
:101A8000F881CF55D140F150C15ADE4FF883CF5580
:101A9000D140C15ADE4F8881CF55D140882331F6DD
:101AA000CE018C5B9E4FC05ADE4F99838883C0560F
:101AB000D140AAEAB0E0CE59DE4FB983A883C2561E
:101AC000D140B8E0CC59DE4FB883C456D140CE598E
:101AD000DE4FE881F981C256D1400080CE59DE4FF9
:101AE00088819981C256D1400196CE59DE4F9983A3
:101AF0008883C256D140C05ADE4FA881B981C056F2
:101B0000D1400C92C05ADE4FE881F981C056D140D5
:101B10003196C05ADE4FF983E883C056D140CC5984
:101B2000DE4FF881C456D140F150CC59DE4FF883D6
:101B3000C456D140CC59DE4F8881C456D140882349
:101B400031F6FE01E55EFE4F1082FE01E65EFE4FBD
:101B500010820E94CF0B0E9490069E01245E3E4F91
:101B6000FE01E55EFE4FDE01A65EBE4F80E0B901DC
:101B700040812C910E94020820E630E080E061E084
:101B8000A9010E946D08FE01EB5EFE4F80E090E02F
:101B9000AAE7B4E480839183A283B3838E010F5EAE
:101BA0001E4FFE01EB5EFE4F608171818281938149
:101BB00020E030E04AEF54E40E941702DC01CB0140
:101BC000F80180839183A283B383FE01EF5EFE4F11
:101BD000608171818281938120E030E040E85FE3A1
:101BE0000E947103882344F4FE01E15FFE4F81E00F
:101BF00090E09183808364C0FE01EF5EFE4F6081C0
:101C000071818281938120E03FEF4FE757E40E948A
:101C1000110318160CF043C0FE01EB5EFE4F60810D
:101C200071818281938120E030E040E251E40E94A2
:101C30001702DC01CB018E01015F1E4FBC01CD01FB
:101C40000E944100DC01CB01F801918380831FC019
:101C5000FE01E35FFE4F88EC90E091838083FE01FC
:101C6000E35FFE4F808191810197F1F7FE01E35F11
:101C7000FE4F91838083DE01A15FBE4FFE01E15FD5
:101C8000FE4F80819181019711969C938E93FE0166
:101C9000E15FFE4F808191810097D1F627C08E01D0
:101CA000015F1E4FFE01EF5EFE4F608171818281F8
:101CB00093810E944100DC01CB01F8019183808374
:101CC000DE01A55FBE4FFE01E15FFE4F8081918185
:101CD0008D939C93FE01E55FFE4F8081918101977A
:101CE000F1F7FE01E55FFE4F9183808381E00E9462
:101CF0005A0620E730E082E061E0A9010E946D0809
:101D0000FE01E55EFE4F108209C39E01245E3E4F38
:101D1000FE01E55EFE4FDE01A65EBE4F80E0B9012A
:101D200040812C910E940208FE01E95FFE4F80E095
:101D300090E0A6E1B3E480839183A283B3838E0114
:101D40000D5F1E4FFE01E95FFE4F60817181828150
:101D5000938120E030E04AEF54E40E941702DC0156
:101D6000CB01F80180839183A283B383FE01ED5FF1
:101D7000FE4F608171818281938120E030E040E8F4
:101D80005FE30E947103882344F4FE01EF5FFE4F7E
:101D900081E090E09183808364C0FE01ED5FFE4F9F
:101DA000608171818281938120E03FEF4FE757E4AA
:101DB0000E94110318160CF043C0FE01E95FFE4FAC
:101DC000608171818281938120E030E040E251E4C2
:101DD0000E941702DC01CB018E010F5F1E4FBC0178
:101DE000CD010E944100DC01CB01F8019183808389
:101DF0001FC0FE01E150FF4F88EC90E0918380838B
:101E0000FE01E150FF4F808191810197F1F7FE01C2
:101E1000E150FF4F91838083DE01AF5FBE4FFE0133
:101E2000EF5FFE4F80819181019711969C938E9375
:101E3000FE01EF5FFE4F808191810097D1F627C0B0
:101E40008E010F5F1E4FFE01ED5FFE4F60817181BD
:101E5000828193810E944100DC01CB01F8019183D2
:101E60008083DE01A350BF4FFE01EF5FFE4F8081F4
:101E700091818D939C93FE01E350FF4F808191816E
:101E80000197F1F7FE01E350FF4F91838083FE013C
:101E9000E55EFE4FDE01A65EBE4F80816C9141E0A3
:101EA0000E944D08FE01E750FF4F80E090E0A6E160
:101EB000B3E480839183A283B3838E010B501F4FC1
:101EC000FE01E750FF4F608171818281938120E0A4
:101ED00030E04AEF54E40E941702DC01CB01F80124
:101EE00080839183A283B383FE01EB50FF4F608117
:101EF00071818281938120E030E040E85FE30E94BD
:101F00007103882344F4FE01ED50FF4F81E090E01F
:101F10009183808364C0FE01EB50FF4F608171812B
:101F20008281938120E03FEF4FE757E40E94110345
:101F300018160CF043C0FE01E750FF4F608171811D
:101F40008281938120E030E040E251E40E94170258
:101F5000DC01CB018E010D501F4FBC01CD010E9451
:101F60004100DC01CB01F801918380831FC0FE0199
:101F7000EF50FF4F88EC90E091838083FE01EF509B
:101F8000FF4F808191810197F1F7FE01EF50FF4FE4
:101F900091838083DE01AD50BF4FFE01ED50FF4FB6
:101FA00080819181019711969C938E93FE01ED5053
:101FB000FF4F808191810097D1F627C08E010D508F
:101FC0001F4FFE01EB50FF4F608171818281938131
:101FD0000E944100DC01CB01F80191838083DE0186
:101FE000A151BF4FFE01ED50FF4F808191818D9334
:101FF0009C93FE01E151FF4F808191810197F1F7A0
:10200000FE01E151FF4F918380839E012C5D3E4F85
:10201000FE01E55EFE4FDE01A65EBE4F81E0B90126
:1020200040812C910E940208FE01E551FF4F80E0A3
:1020300090E0A6E1B3E480839183A283B3838E0111
:1020400009511F4FFE01E551FF4F6081718182816F
:10205000938120E030E04AEF54E40E941702DC0153
:10206000CB01F80180839183A283B383FE01E95100
:10207000FF4F608171818281938120E030E040E8F0
:102080005FE30E947103882344F4FE01EB51FF4F8C
:1020900081E090E09183808364C0FE01E951FF4FAD
:1020A000608171818281938120E03FEF4FE757E4A7
:1020B0000E94110318160CF043C0FE01E551FF4FBA
:1020C000608171818281938120E030E040E251E4BF
:1020D0000E941702DC01CB018E010B511F4FBC0186
:1020E000CD010E944100DC01CB01F8019183808386
:1020F0001FC0FE01ED51FF4F88EC90E0918380837B
:10210000FE01ED51FF4F808191810197F1F7FE01B2
:10211000ED51FF4F91838083DE01AB51BF4FFE0134
:10212000EB51FF4F80819181019711969C938E9383
:10213000FE01EB51FF4F808191810097D1F627C0BE
:102140008E010B511F4FFE01E951FF4F60817181DC
:10215000828193810E944100DC01CB01F8019183CF
:102160008083DE01AF51BF4FFE01EB51FF4F8081F5
:1021700091818D939C93FE01EF51FF4F808191815E
:102180000197F1F7FE01EF51FF4F91838083FE012C
:10219000E55EFE4FDE01A65EBE4F80816C9141E0A0
:1021A0000E944D08FE01E352FF4F80E090E0A6E15F
:1021B000B3E480839183A283B3838E0107521F4FC0
:1021C000FE01E352FF4F608171818281938120E0A3
:1021D00030E04AEF54E40E941702DC01CB01F80121
:1021E00080839183A283B383FE01E752FF4F608116
:1021F00071818281938120E030E040E85FE30E94BA
:102200007103882344F4FE01E952FF4F81E090E01E
:102210009183808364C0FE01E752FF4F608171812A
:102220008281938120E03FEF4FE757E40E94110342
:1022300018160CF043C0FE01E352FF4F608171811C
:102240008281938120E030E040E251E40E94170255
:10225000DC01CB018E0109521F4FBC01CD010E9450
:102260004100DC01CB01F801918380831FC0FE0196
:10227000EB52FF4F88EC90E091838083FE01EB529C
:10228000FF4F808191810197F1F7FE01EB52FF4FE3
:1022900091838083DE01A952BF4FFE01E952FF4FB7
:1022A00080819181019711969C938E93FE01E95252
:1022B000FF4F808191810097D1F627C08E0109528E
:1022C0001F4FFE01E752FF4F608171818281938130
:1022D0000E944100DC01CB01F80191838083DE0183
:1022E000AD52BF4FFE01E952FF4F808191818D9326
:1022F0009C93FE01ED52FF4F808191810197F1F790
:10230000FE01ED52FF4F91838083DE01A55EBE4F3B
:10231000FE01E55EFE4F80818F5F8C93FE01E55EDE
:10232000FE4F8081803108F4F0CC81E00E945A0693
:102330002AE730E082E061E0A9010E946D08FE0119
:10234000E153FF4F80E090E0AAE7B4E480839183FB
:10235000A283B3838E0105531F4FFE01E153FF4F4C
:10236000608171818281938120E030E04AEF54E402
:102370000E941702DC01CB01F80180839183A283C4
:10238000B383FE01E553FF4F6081718182819381A8
:1023900020E030E040E85FE30E947103882344F4CA
:1023A000FE01E753FF4F81E090E09183808364C09A
:1023B000FE01E553FF4F608171818281938120E0AE
:1023C0003FEF4FE757E40E94110318160CF043C08B
:1023D000FE01E153FF4F608171818281938120E092
:1023E00030E040E251E40E941702DC01CB018E0193
:1023F00007531F4FBC01CD010E944100DC01CB01FE
:10240000F801918380831FC0FE01E953FF4F88ECE0
:1024100090E091838083FE01E953FF4F8081918199
:102420000197F1F7FE01E953FF4F91838083DE01AD
:10243000A753BF4FFE01E753FF4F80819181019762
:1024400011969C938E93FE01E753FF4F80819181FB
:102450000097D1F628C08E0107531F4FFE01E553A8
:10246000FF4F60817181828193810E944100DC0174
:10247000CB01F80191838083DE01AB53BF4FFE0196
:10248000E753FF4F8081918111969C938E93FE01BB
:10249000EB53FF4F808191810197F1F7FE01EB53E0
:1024A000FF4F91838083FE01E75EFE4F108281C162
:1024B0009E01245E3E4F80E0B90147E020E00E948B
:1024C0000208FE01EF53FF4F80E090E0A6E1B3E485
:1024D00080839183A283B3838E0103541F4FFE0137
:1024E000EF53FF4F608171818281938120E030E062
:1024F0004AEF54E40E941702DC01CB01F80180830B
:102500009183A283B383FE01E354FF4F6081718105
:102510008281938120E030E040E85FE30E94710314
:10252000882344F4FE01E554FF4F81E090E091835D
:10253000808364C0FE01E354FF4F6081718182811A
:10254000938120E03FEF4FE757E40E9411031816F4
:102550000CF043C0FE01EF53FF4F60817181828117
:10256000938120E030E040E251E40E941702DC0158
:10257000CB018E0105541F4FBC01CD010E944100CB
:10258000DC01CB01F801918380831FC0FE01E75479
:10259000FF4F88EC90E091838083FE01E754FF4F6A
:1025A000808191810197F1F7FE01E754FF4F9183FC
:1025B0008083DE01A554BF4FFE01E554FF4F8081AB
:1025C0009181019711969C938E93FE01E554FF4FE4
:1025D000808191810097D1F627C08E0105541F4F4D
:1025E000FE01E354FF4F60817181828193810E94DB
:1025F0004100DC01CB01F80191838083DE01A95405
:10260000BF4FFE01E554FF4F808191818D939C93D4
:10261000FE01E954FF4F808191810197F1F7FE019E
:10262000E954FF4F918380839E012C5D3E4F81E0F2
:10263000B90147E020E00E940208FE01ED54FF4F7F
:1026400080E090E0A6E1B3E480839183A283B3832A
:102650008E0101551F4FFE01ED54FF4F60817181C6
:102660008281938120E030E04AEF54E40E94170217
:10267000DC01CB01F80180839183A283B383FE0147
:10268000E155FF4F608171818281938120E030E0CC
:1026900040E85FE30E947103882344F4FE01E355A0
:1026A000FF4F81E090E09183808364C0FE01E1559B
:1026B000FF4F608171818281938120E03FEF4FE77E
:1026C00057E40E94110318160CF043C0FE01ED54AC
:1026D000FF4F608171818281938120E030E040E290
:1026E00051E40E941702DC01CB018E0103551F4FFC
:1026F000BC01CD010E944100DC01CB01F8019183B6
:1027000080831FC0FE01E555FF4F88EC90E0918368
:102710008083FE01E555FF4F808191810197F1F79C
:10272000FE01E555FF4F91838083DE01A355BF4F26
:10273000FE01E355FF4F80819181019711969C9393
:102740008E93FE01E355FF4F808191810097D1F672
:1027500027C08E0103551F4FFE01E155FF4F6081D9
:102760007181828193810E944100DC01CB01F801DB
:1027700091838083DE01A755BF4FFE01E355FF4FD4
:10278000808191818D939C93FE01E755FF4F80815D
:1027900091810197F1F7FE01E755FF4F9183808307
:1027A000DE01A75EBE4FFE01E75EFE4F80818F5FB8
:1027B0008C93FE01E75EFE4F80818B3008F478CE6B
:1027C00081E00E945A0626E830E080E061E0A9013D
:1027D0000E946D08FE01EB55FF4F80E090E0AAE7F4
:1027E000B4E480839183A283B3838E010F551F4F7E
:1027F000FE01EB55FF4F608171818281938120E062
:1028000030E04AEF54E40E941702DC01CB01F801EA
:1028100080839183A283B383FE01EF55FF4F6081D4
:1028200071818281938120E030E040E85FE30E9483
:102830007103882344F4FE01E156FF4F81E090E0EC
:102840009183808364C0FE01EF55FF4F60817181E9
:102850008281938120E03FEF4FE757E40E9411030C
:1028600018160CF043C0FE01EB55FF4F60817181DB
:102870008281938120E030E040E251E40E9417021F
:10288000DC01CB018E0101561F4FBC01CD010E941E
:102890004100DC01CB01F801918380831FC0FE0160
:1028A000E356FF4F88EC90E091838083FE01E3566E
:1028B000FF4F808191810197F1F7FE01E356FF4FB1
:1028C00091838083DE01A156BF4FFE01E156FF4F89
:1028D00080819181019711969C938E93FE01E15620
:1028E000FF4F808191810097D1F628C08E0101565B
:1028F0001F4FFE01EF55FF4F6081718182819381EF
:102900000E944100DC01CB01F80191838083DE014C
:10291000A556BF4FFE01E156FF4F80819181119670
:102920009C938E93FE01E556FF4F80819181019724
:10293000F1F7FE01E556FF4F91838083FE01E55ECE
:10294000FE4F1082CBC39E012C5B3E4FFE01E55E25
:10295000FE4FDE01A65EBE4F85E0B90140812C919D
:102960000E940208FE01E956FF4F80E090E0A8E4D3
:10297000B2E480839183A283B3838E010D561F4FEF
:10298000FE01E956FF4F608171818281938120E0D1
:1029900030E04AEF54E40E941702DC01CB01F80159
:1029A00080839183A283B383FE01ED56FF4F608144
:1029B00071818281938120E030E040E85FE30E94F2
:1029C0007103882344F4FE01EF56FF4F81E090E04D
:1029D0009183808364C0FE01ED56FF4F6081718159
:1029E0008281938120E03FEF4FE757E40E9411037B
:1029F00018160CF043C0FE01E956FF4F608171814B
:102A00008281938120E030E040E251E40E9417028D
:102A1000DC01CB018E010F561F4FBC01CD010E947E
:102A20004100DC01CB01F801918380831FC0FE01CE
:102A3000E157FF4F88EC90E091838083FE01E157DE
:102A4000FF4F808191810197F1F7FE01E157FF4F20
:102A500091838083DE01AF56BF4FFE01EF56FF4FDB
:102A600080819181019711969C938E93FE01EF5680
:102A7000FF4F808191810097D1F627C08E010F56BC
:102A80001F4FFE01ED56FF4F60817181828193815E
:102A90000E944100DC01CB01F80191838083DE01BB
:102AA000A357BF4FFE01EF56FF4F808191818D9359
:102AB0009C93FE01E357FF4F808191810197F1F7CD
:102AC000FE01E357FF4F918380839E01245E3E4FBA
:102AD000FE01E55EFE4FDE01A65EBE4F80E0B9015D
:102AE00040812C910E940208FE01E757FF4F80E0D1
:102AF00090E0A8E4B2E480839183A283B3838E0143
:102B00000B571F4FFE01E757FF4F60817181828194
:102B1000938120E030E04AEF54E40E941702DC0188
:102B2000CB01F80180839183A283B383FE01EB572D
:102B3000FF4F608171818281938120E030E040E825
:102B40005FE30E947103882344F4FE01ED57FF4FB9
:102B500081E090E09183808364C0FE01EB57FF4FDA
:102B6000608171818281938120E03FEF4FE757E4DC
:102B70000E94110318160CF043C0FE01E757FF4FE7
:102B8000608171818281938120E030E040E251E4F4
:102B90000E941702DC01CB018E010D571F4FBC01B3
:102BA000CD010E944100DC01CB01F80191838083BB
:102BB0001FC0FE01EF57FF4F88EC90E091838083A8
:102BC000FE01EF57FF4F808191810197F1F7FE01E0
:102BD000EF57FF4F91838083DE01AD57BF4FFE015A
:102BE000ED57FF4F80819181019711969C938E93B1
:102BF000FE01ED57FF4F808191810097D1F627C0EC
:102C00008E010D571F4FFE01EB57FF4F6081718101
:102C1000828193810E944100DC01CB01F801918304
:102C20008083DE01A158BF4FFE01ED57FF4F808129
:102C300091818D939C93FE01E158FF4F808191819A
:102C40000197F1F7FE01E158FF4F91838083FE0168
:102C5000E55EFE4FDE01A65EBE4F80816C9141E0D5
:102C60000E944D08FE01E558FF4F80E090E0A8E487
:102C7000B2E480839183A283B3838E0109581F4FEE
:102C8000FE01E558FF4F608171818281938120E0D0
:102C900030E04AEF54E40E941702DC01CB01F80156
:102CA00080839183A283B383FE01E958FF4F608143
:102CB00071818281938120E030E040E85FE30E94EF
:102CC0007103882344F4FE01EB58FF4F81E090E04C
:102CD0009183808364C0FE01E958FF4F6081718158
:102CE0008281938120E03FEF4FE757E40E94110378
:102CF00018160CF043C0FE01E558FF4F608171814A
:102D00008281938120E030E040E251E40E9417028A
:102D1000DC01CB018E010B581F4FBC01CD010E947D
:102D20004100DC01CB01F801918380831FC0FE01CB
:102D3000ED58FF4F88EC90E091838083FE01ED58C1
:102D4000FF4F808191810197F1F7FE01ED58FF4F10
:102D500091838083DE01AB58BF4FFE01EB58FF4FDC
:102D600080819181019711969C938E93FE01EB587F
:102D7000FF4F808191810097D1F627C08E010B58BB
:102D80001F4FFE01E958FF4F60817181828193815D
:102D90000E944100DC01CB01F80191838083DE01B8
:102DA000AF58BF4FFE01EB58FF4F808191818D934B
:102DB0009C93FE01EF58FF4F808191810197F1F7BD
:102DC000FE01EF58FF4F918380839E012C5D3E4FA3
:102DD000FE01E55EFE4FDE01A65EBE4F81E0B90159
:102DE00040812C910E940208FE01E359FF4F80E0D0
:102DF00090E0A8E4B2E480839183A283B3838E0140
:102E000007591F4FFE01E359FF4F60817181828195
:102E1000938120E030E04AEF54E40E941702DC0185
:102E2000CB01F80180839183A283B383FE01E7592C
:102E3000FF4F608171818281938120E030E040E822
:102E40005FE30E947103882344F4FE01E959FF4FB8
:102E500081E090E09183808364C0FE01E759FF4FD9
:102E6000608171818281938120E03FEF4FE757E4D9
:102E70000E94110318160CF043C0FE01E359FF4FE6
:102E8000608171818281938120E030E040E251E4F1
:102E90000E941702DC01CB018E0109591F4FBC01B2
:102EA000CD010E944100DC01CB01F80191838083B8
:102EB0001FC0FE01EB59FF4F88EC90E091838083A7
:102EC000FE01EB59FF4F808191810197F1F7FE01DF
:102ED000EB59FF4F91838083DE01A959BF4FFE015B
:102EE000E959FF4F80819181019711969C938E93B0
:102EF000FE01E959FF4F808191810097D1F627C0EB
:102F00008E0109591F4FFE01E759FF4F6081718102
:102F1000828193810E944100DC01CB01F801918301
:102F20008083DE01AD59BF4FFE01E959FF4F80811B
:102F300091818D939C93FE01ED59FF4F808191818A
:102F40000197F1F7FE01ED59FF4F91838083FE0158
:102F5000E55EFE4FDE01A65EBE4F80816C9141E0D2
:102F60000E944D08FE01E15AFF4F80E090E0A8E486
:102F7000B2E480839183A283B3838E01055A1F4FED
:102F8000FE01E15AFF4F608171818281938120E0CF
:102F900030E04AEF54E40E941702DC01CB01F80153
:102FA00080839183A283B383FE01E55AFF4F608142
:102FB00071818281938120E030E040E85FE30E94EC
:102FC0007103882344F4FE01E75AFF4F81E090E04B
:102FD0009183808364C0FE01E55AFF4F6081718157
:102FE0008281938120E03FEF4FE757E40E94110375
:102FF00018160CF043C0FE01E15AFF4F6081718149
:103000008281938120E030E040E251E40E94170287
:10301000DC01CB018E01075A1F4FBC01CD010E947C
:103020004100DC01CB01F801918380831FC0FE01C8
:10303000E95AFF4F88EC90E091838083FE01E95AC2
:10304000FF4F808191810197F1F7FE01E95AFF4F0F
:1030500091838083DE01A75ABF4FFE01E75AFF4FDD
:1030600080819181019711969C938E93FE01E75A7E
:10307000FF4F808191810097D1F627C08E01075ABA
:103080001F4FFE01E55AFF4F60817181828193815C
:103090000E944100DC01CB01F80191838083DE01B5
:1030A000AB5ABF4FFE01E75AFF4F808191818D934C
:1030B0009C93FE01EB5AFF4F808191810197F1F7BC
:1030C000FE01EB5AFF4F91838083DE01A55EBE4F68
:1030D000FE01E55EFE4F80818F5F8C93FE01E55E11
:1030E000FE4F8081803108F42ECC81E00E945A0688
:1030F00025E930E080E061E0A9010E946D08FE0151
:10310000EF5AFF4F80E090E0AAE7B4E48083918318
:10311000A283B3838E01035B1F4FFE01EF5AFF4F63
:10312000608171818281938120E030E04AEF54E434
:103130000E941702DC01CB01F80180839183A283F6
:10314000B383FE01E35BFF4F6081718182819381D4
:1031500020E030E040E85FE30E947103882344F4FC
:10316000FE01E55BFF4F81E090E09183808364C0C6
:10317000FE01E35BFF4F608171818281938120E0DA
:103180003FEF4FE757E40E94110318160CF043C0BD
:10319000FE01EF5AFF4F608171818281938120E0AF
:1031A00030E040E251E40E941702DC01CB018E01C5
:1031B000055B1F4FBC01CD010E944100DC01CB012A
:1031C000F801918380831FC0FE01E75BFF4F88EC0D
:1031D00090E091838083FE01E75BFF4F80819181C6
:1031E0000197F1F7FE01E75BFF4F91838083DE01DA
:1031F000A55BBF4FFE01E55BFF4F80819181019789
:1032000011969C938E93FE01E55BFF4F8081918127
:103210000097D1F627C08E01055B1F4FFE01E35BCF
:10322000FF4F60817181828193810E944100DC01A6
:10323000CB01F80191838083DE01A95BBF4FFE01C2
:10324000E55BFF4F808191818D939C93FE01E95B4B
:10325000FF4F808191810197F1F7FE01E95BFF4FFC
:10326000918380839E01245D3E4F82E0B90140E05E
:1032700020E00E9402089E01245E3E4F80E0B901DA
:103280004FE020E00E940208FE01ED5BFF4F80E06E
:1032900090E0AAE7B4E480839183A283B3838E0194
:1032A000015C1F4FFE01ED5BFF4F608171818281E8
:1032B000938120E030E04AEF54E40E941702DC01E1
:1032C000CB01F80180839183A283B383FE01FF9633
:1032D000608171818281938120E030E040E85FE38A
:1032E0000E94710388232CF481E090E09EAF8DAFA3
:1032F00046C0FE01FF96608171818281938120E04A
:103300003FEF4FE757E40E941103181664F5FE01E2
:10331000ED5BFF4F608171818281938120E030E01D
:1033200040E251E40E941702DC01CB01BC01CD0157
:103330000E944100DC01CB019EAF8DAF0FC088EC35
:1033400090E09CAF8BAF8BAD9CAD0197F1F79CAF3C
:103350008BAF8DAD9EAD01979EAF8DAF8DAD9EAD08
:10336000009769F716C0FE01FF9660817181828126
:1033700093810E944100DC01CB019EAF8DAF8DADEA
:103380009EAD9AAF89AF89AD9AAD0197F1F79AAF2B
:1033900089AFFE01E55EFE4F81E0808307C19E019B
:1033A0002C5C3E4FFE01E55EFE4FDE01A65EBE4F89
:1033B00083E0B90140812C910E94020880E090E0F6
:1033C000A8E4B2E48DAB9EABAFABB8AF6DA97EA95C
:1033D0008FA998AD20E030E04AEF54E40E94170234
:1033E000DC01CB0189AB9AABABABBCAB69A97AA9C9
:1033F0008BA99CA920E030E040E85FE30E947103C4
:1034000088232CF481E090E098AB8FA73FC069A996
:103410007AA98BA99CA920E03FEF4FE757E40E94CF
:10342000110318164CF56DA97EA98FA998AD20E05F
:1034300030E040E251E40E941702DC01CB01BC0104
:10344000CD010E944100DC01CB0198AB8FA70FC0DA
:1034500088EC90E09EA78DA78DA59EA50197F1F71A
:103460009EA78DA78FA598A9019798AB8FA78FA529
:1034700098A9009769F714C069A97AA98BA99CA992
:103480000E944100DC01CB0198AB8FA78FA598A9C2
:103490009CA78BA78BA59CA50197F1F79CA78BA751
:1034A000FE01E55EFE4FDE01A65EBE4F80816C919F
:1034B00041E00E944D0880E090E0A8E4B2E48FA3D0
:1034C00098A7A9A7BAA76FA178A589A59AA520E072
:1034D00030E04AEF54E40E941702DC01CB018BA3D9
:1034E0009CA3ADA3BEA36BA17CA18DA19EA120E056
:1034F00030E040E85FE30E94710388232CF481E010
:1035000090E09AA389A33FC06BA17CA18DA19EA14D
:1035100020E03FEF4FE757E40E94110318164CF5E7
:103520006FA178A589A59AA520E030E040E251E49A
:103530000E941702DC01CB01BC01CD010E944100B9
:10354000DC01CB019AA389A30FC088EC90E098A37B
:103550008F8F8F8D98A10197F1F798A38F8F89A1F5
:103560009AA101979AA389A389A19AA1009769F7C3
:1035700014C06BA17CA18DA19EA10E944100DC0121
:10358000CB019AA389A389A19AA19E8F8D8F8D8D3E
:103590009E8D0197F1F79E8F8D8FDE01A55EBE4F48
:1035A000FE01E55EFE4F80818F5F8C93FE01E55E3C
:1035B000FE4F80818F3008F4F2CE9E01245C3E4F96
:1035C00084E0B9014FE020E00E94020880E090E032
:1035D000AAE7B4E4898F9A8FAB8FBC8F698D7A8DFF
:1035E0008B8D9C8D20E030E04AEF54E40E9417025E
:1035F000DC01CB018D8B9E8BAF8BB88F6D897E8963
:103600008F89988D20E030E040E85FE30E947103ED
:1036100088232CF481E090E09C8B8B8B3FC06D89DC
:103620007E898F89988D20E03FEF4FE757E40E9415
:10363000110318164CF5698D7A8D8B8D9C8D20E0C9
:1036400030E040E251E40E941702DC01CB01BC01F2
:10365000CD010E944100DC01CB019C8B8B8B0FC004
:1036600088EC90E09A8B898B89899A890197F1F788
:103670009A8B898B8B899C8901979C8B8B8B8B89EF
:103680009C89009769F714C06D897E898F89988D10
:103690000E944100DC01CB019C8B8B8B8B899C8928
:1036A000988B8F878F8598890197F1F7988B8F87F3
:1036B00081E00E945A0680E090E0AAE7B4E48B879C
:1036C0009C87AD87BE876B857C858D859E8520E038
:1036D00030E04AEF54E40E941702DC01CB018F83F3
:1036E0009887A987BA876F81788589859A8520E030
:1036F00030E040E85FE30E94710388232CF481E00E
:1037000090E09E838D8340C06F81788589859A85FE
:1037100020E03FEF4FE757E40E941103181654F5DD
:103720006B857C858D859E8520E030E040E251E40C
:103730000E941702DC01CB01BC01CD010E944100B7
:10374000DC01CB019E838D830FC088EC90E09C83CD
:103750008B838B819C810197F1F79C838B838D8177
:103760009E8101979E838D838D819E81009769F74D
:103770000C94BC0D6F81788589859A850E944100E3
:10378000DC01CB019E838D838D819E819A83898309
:1037900089819A810197F1F79A8389830C94BC0DF2
:1037A00097FB092E05260ED057FD04D014D00AD061
:1037B000001C38F450954095309521953F4F4F4F60
:1037C0005F4F0895F6F790958095709561957F4FBE
:1037D0008F4F9F4F0895A1E21A2EAA1BBB1BFD011C
:1037E0000DC0AA1FBB1FEE1FFF1FA217B307E407E0
:1037F000F50720F0A21BB30BE40BF50B661F771F38
:10380000881F991F1A9469F7609570958095909517
:103810009B01AC01BD01CF0108952F923F924F92C1
:103820005F926F927F928F929F92AF92BF92CF9250
:10383000DF92EF92FF920F931F93CF93DF93CDB759
:10384000DEB7CA1BDB0B0FB6F894DEBF0FBECDBFD1
:1038500009942A88398848885F846E847D848C84A2
:103860009B84AA84B984C884DF80EE80FD800C81AB
:103870001B81AA81B981CE0FD11D0FB6F894DEBF8E
:0C3880000FBECDBFED010895F894FFCFFE
:10388C0048692049276D2048414D4F4B5348410012
:10389C00492043414E2052554E00492043414E2071
:1038AC0044414E4345004920504C415920464F4F0E
:1038BC005442414C00444F4E54204B494C4C204DEB
:1038CC004500000000000000000000000000000E99
:1038DC000E0E0000190F190000001F111F141C10F0
:1038EC0000000E0A0E141F051A020E0A0E051F14F4
:0238FC000A11AF
:00000001FF
