:100000000C942A000C9434000C9434000C943400AA
:100010000C9434000C9434000C9434000C94340090
:100020000C9434000C9434000C9434000C94340080
:100030000C9434000C9434000C9434000C94340070
:100040000C9434000C9434000C9434000C94340060
:100050000C94340011241FBECFE5D8E0DEBFCDBF25
:100060000E949D040C940C050C940000DF93CF9328
:10007000CDB7DEB7A7E2B0E0E7E2F0E080818064D0
:100080008C93A7E2B0E0E7E2F0E080818F778C9379
:10009000A7E2B0E0E7E2F0E080818F7D8C93A7E2F9
:1000A000B0E0E7E2F0E0808180628C93A6E2B0E00D
:1000B000E6E2F0E08081887F8C93A6E2B0E0E6E2A1
:1000C000F0E0808187608C93A6E2B0E0E6E2F0E0A9
:1000D000808180688C93CF91DF910895DF93CF93D7
:1000E0000F92CDB7DEB78983A6E2B0E0E6E2F0E09A
:1000F0008081807E8C93A6E2B0E0E6E2F0E0908121
:100100008981892B8C93A6E2B0E0E6E2F0E0808161
:1001100080648C93E6E2F0E0808182958F70882F76
:1001200090E0817090700097A9F3A6E2B0E0E6E25B
:10013000F0E0808180618C93E4E2F0E08081882FA0
:1001400090E00F90CF91DF910895DF93CF93CDB7DB
:10015000DEB728970FB6F894DEBF0FBECDBF8A83F7
:100160006B834C8319828B81883008F0F4C08C81BA
:10017000882309F077C08A81282F30E038872F83C1
:100180008F8198858130910559F12F8138852230F2
:1001900031052CF48F819885009769F060C02F811C
:1001A00038852230310589F18F819885833091051A
:1001B00009F440C054C0AAE3B0E0EAE3F0E0808173
:1001C000482F8B81282F30E081E090E0022E02C082
:1001D000880F991F0A94E2F7809584238C93BDC001
:1001E000A7E3B0E0E7E3F0E08081482F8B81282F80
:1001F00030E081E090E0022E02C0880F991F0A943F
:10020000E2F7809584238C93A8C0A4E3B0E0E4E3F4
:10021000F0E08081482F8B81282F30E081E090E052
:10022000022E02C0880F991F0A94E2F7809584235A
:100230008C9393C0A1E3B0E0E1E3F0E08081482F2C
:100240008B81282F30E081E090E0022E02C0880FE1
:10025000991F0A94E2F7809584238C937EC081E0F5
:1002600089837BC08C81813009F072C08A81282FFC
:1002700030E03E832D838D819E818130910549F14F
:100280002D813E81223031052CF48D819E81009795
:1002900061F05BC02D813E812230310571F18D818D
:1002A0009E8183309105E9F150C0AAE3B0E0EAE312
:1002B000F0E08081482F8B81282F30E081E090E0B2
:1002C000022E02C0880F991F0A94E2F7842B8C93A8
:1002D00044C0A7E3B0E0E7E3F0E08081482F8B81E2
:1002E000282F30E081E090E0022E02C0880F991F95
:1002F0000A94E2F7842B8C9330C0A4E3B0E0E4E3EB
:10030000F0E08081482F8B81282F30E081E090E061
:10031000022E02C0880F991F0A94E2F7842B8C9357
:100320001CC0A1E3B0E0E1E3F0E08081482F8B81C5
:10033000282F30E081E090E0022E02C0880F991F44
:100340000A94E2F7842B8C9308C081E0898305C06E
:1003500081E0898302C081E08983898128960FB674
:10036000F894DEBF0FBECDBFCF91DF910895DF932C
:10037000CF9300D000D00F92CDB7DEB78A836B83C6
:1003800019828A81282F30E03D832C838C819D81C6
:1003900081309105D1F02C813D81223031052CF442
:1003A0008C819D81009761F01FC02C813D8122309E
:1003B000310581F08C819D818330910581F014C0DD
:1003C000EAE3F0E08B81808311C0E7E3F0E08B810A
:1003D00080830CC0E4E3F0E08B81808307C0E1E31D
:1003E000F0E08B81808302C081E0898389810F9056
:1003F0000F900F900F900F90CF91DF910895DF93A2
:10040000CF93CDB7DEB728970FB6F894DEBF0FBEF7
:10041000CDBF8A836B834C8319828B81883008F02F
:10042000F4C08C81882309F077C08A81282F30E0BE
:1004300038872F838F8198858130910559F12F81DD
:100440003885223031052CF48F819885009769F02A
:1004500060C02F8138852230310589F18F819885E0
:100460008330910509F440C054C0ABE3B0E0EBE346
:10047000F0E08081482F8B81282F30E081E090E0F0
:10048000022E02C0880F991F0A94E2F780958423F8
:100490008C93BDC0A8E3B0E0E8E3F0E08081482F92
:1004A0008B81282F30E081E090E0022E02C0880F7F
:1004B000991F0A94E2F7809584238C93A8C0A5E342
:1004C000B0E0E5E3F0E08081482F8B81282F30E019
:1004D00081E090E0022E02C0880F991F0A94E2F793
:1004E000809584238C9393C0A2E3B0E0E2E3F0E034
:1004F0008081482F8B81282F30E081E090E0022E10
:1005000002C0880F991F0A94E2F7809584238C9388
:100510007EC081E089837BC08C81813009F072C00C
:100520008A81282F30E03E832D838D819E8181300A
:10053000910549F12D813E81223031052CF48D81C8
:100540009E81009761F05BC02D813E812230310594
:1005500071F18D819E8183309105E9F150C0ABE34B
:10056000B0E0EBE3F0E08081482F8B81282F30E072
:1005700081E090E0022E02C0880F991F0A94E2F7F2
:10058000842B8C9344C0A8E3B0E0E8E3F0E08081E2
:10059000482F8B81282F30E081E090E0022E02C0AE
:1005A000880F991F0A94E2F7842B8C9330C0A5E33F
:1005B000B0E0E5E3F0E08081482F8B81282F30E028
:1005C00081E090E0022E02C0880F991F0A94E2F7A2
:1005D000842B8C931CC0A2E3B0E0E2E3F0E08081C6
:1005E000482F8B81282F30E081E090E0022E02C05E
:1005F000880F991F0A94E2F7842B8C9308C081E03E
:10060000898305C081E0898302C081E08983898173
:1006100028960FB6F894DEBF0FBECDBFCF91DF9105
:100620000895DF93CF9300D000D00F92CDB7DEB7FF
:100630008A836B8319828A81282F30E03D832C8343
:100640008C819D8181309105D1F02C813D812230BA
:1006500031052CF48C819D81009761F01FC02C81A5
:100660003D812230310581F08C819D81833091055F
:1006700081F014C0EBE3F0E08B81808311C0E8E3EC
:10068000F0E08B8180830CC0E5E3F0E08B81808318
:1006900007C0E2E3F0E08B81808302C081E08983C0
:1006A00089810F900F900F900F900F90CF91DF9155
:1006B0000895DF93CF93CDB7DEB727970FB6F894A1
:1006C000DEBF0FBECDBF8A836B835D834C831982EF
:1006D0008C819D81009709F47AC08B81883008F065
:1006E00074C08A81282F30E03F832E834E815F8142
:1006F0004130510559F18E819F818230910534F44A
:100700002E813F812115310569F05CC04E815F81EA
:100710004230510579F18E819F818330910509F432
:100720003DC050C0E9E3F0E08081282F30E08B81AC
:10073000882F90E0A90102C0559547958A95E2F768
:10074000CA018170EC81FD81808341C0E6E3F0E065
:100750008081282F30E08B81882F90E0A90102C092
:10076000559547958A95E2F7CA018170EC81FD8124
:1007700080832DC0E3E3F0E08081282F30E08B817F
:10078000882F90E0A90102C0559547958A95E2F718
:10079000CA018170EC81FD81808319C0E0E3F0E043
:1007A0008081282F30E08B81882F90E0A90102C042
:1007B000559547958A95E2F7CA018170EC81FD81D4
:1007C000808305C081E0898302C082E089838981BA
:1007D00027960FB6F894DEBF0FBECDBFCF91DF9145
:1007E0000895DF93CF9300D000D00F92CDB7DEB73E
:1007F0008A836B8319828B81883008F072C08A816A
:10080000282F30E03D832C838C819D8181309105A0
:1008100049F12C813D81223031052CF48C819D8160
:10082000009761F05BC02C813D812230310571F170
:100830008C819D8183309105E9F150C0ABE3B0E03C
:10084000EBE3F0E08081482F8B81282F30E081E0BE
:1008500090E0022E02C0880F991F0A94E2F78427C5
:100860008C9341C0A8E3B0E0E8E3F0E08081482F3A
:100870008B81282F30E081E090E0022E02C0880FAB
:10088000991F0A94E2F784278C932DC0A5E3B0E06A
:10089000E5E3F0E08081482F8B81282F30E081E074
:1008A00090E0022E02C0880F991F0A94E2F7842775
:1008B0008C9319C0A2E3B0E0E2E3F0E08081482F1E
:1008C0008B81282F30E081E090E0022E02C0880F5B
:1008D000991F0A94E2F784278C9305C081E08983ED
:1008E00002C081E0898389810F900F900F900F9053
:1008F0000F90CF91DF910895DF93CF93CDB7DEB7FF
:10090000EAE3F0E08EE78083E7E3F0E01082E4E3DF
:10091000F0E01082E1E3F0E08FEF8083EBE3F0E0C2
:100920001082E8E3F0E01082E5E3F0E01082E2E319
:10093000F0E01082CF91DF910895DF93CF9300D044
:100940000F92CDB7DEB70E947C040E94360080E093
:100950000E946E009B838A838A819B81CC01A0E0E8
:10096000B0E02FEF30E040E050E0BC01CD010E944C
:10097000CB04DC01CB012FEF33E040E050E0BC01C1
:10098000CD010E94EA04DA01C901898383E069810B
:100990000E941103DCCF629FD001739FF001829F00
:1009A000E00DF11D649FE00DF11D929FF00D839FFE
:1009B000F00D749FF00D659FF00D9927729FB00D9B
:1009C000E11DF91F639FB00DE11DF91FBD01CF01AE
:1009D00011240895A1E21A2EAA1BBB1BFD010DC014
:1009E000AA1FBB1FEE1FFF1FA217B307E407F507DF
:1009F00020F0A21BB30BE40BF50B661F771F881FBB
:100A0000991F1A9469F760957095809590959B0150
:0C0A1000AC01BD01CF010895F894FFCFA8
:00000001FF
