:100000000C942A000C9434000C9434000C943400AA
:100010000C9434000C9434000C9434000C94340090
:100020000C9434000C9434000C9434000C94340080
:100030000C9434000C9434000C9434000C94340070
:100040000C9434000C9434000C9434000C94340060
:100050000C94340011241FBECFE5D8E0DEBFCDBF25
:100060000E9436000C947A000C940000DF93CF932A
:1000700000D0CDB7DEB7A7E3B0E0E7E3F0E08081E2
:100080008E7F8C93A8E3B0E0E8E3F0E080818160AC
:100090008C93A6E3B0E0E6E3F0E080818D7F8C9363
:1000A000A8E3B0E0E8E3F0E0808182608C93E4E3D1
:1000B000F0E08FEF8083E6E3F0E0808181708A8357
:1000C000E6E3F0E080818695817089838A818823C8
:1000D00029F4E5E3F0E081E08083EDCF8981882396
:1000E00029F4E5E3F0E082E08083E5CFE5E3F0E0AA
:0800F0001082E1CFF894FFCF6C
:00000001FF
