:100000000C942A000C9447000C9447000C94470071
:100010000C9447000C9447000C9447000C94470044
:100020000C9447000C9447000C9447000C94470034
:100030000C9447000C9447000C9447000C94470024
:100040000C9447000C9447000C9447000C94470014
:100050000C94470011241FBECFE5D8E0DEBFCDBF12
:1000600010E0A0E6B0E0ECEEFFE302C005900D92D8
:10007000A63AB107D9F710E0A6EAB0E001C01D9298
:10008000AB3AB107E1F70E94210D0C94F41F0C94D8
:100090000000EF92FF920F931F937B018C0120E0F1
:1000A00030E040E05FE40E94490388238CF0C801FF
:1000B000B70120E030E040E05FE40E94C1010E940F
:1000C000A9039B01AC01205030404040504806C07D
:1000D000C801B7010E94A9039B01AC01B901CA0183
:1000E0001F910F91FF90EF900895A0E0B0E0EBE733
:1000F000F0E00C94F81CDC012B01FA019C91923089
:1001000008F439C1EB018881823008F433C194309E
:1001100069F4843009F02FC111969C91119789815F
:10012000981709F428C1AAE8B0E025C1843009F481
:1001300021C18230A9F4923009F01DC19A01AD01AC
:1001400088E0EA010990AE01E90109929E0181501F
:10015000C1F7E201898111969C918923818308C1AD
:10016000923009F407C112962D903C901397EB0141
:100170008A819B811496AD90BD90CD90DC901797AD
:10018000EC80FD800E811F819101281B390BB90184
:1001900037FF04C066277727621B730B6032710537
:1001A0000CF061C0121613066CF537014801062EDB
:1001B00004C096948794779467940A94D2F721E0C8
:1001C00030E040E050E004C0220F331F441F551FB1
:1001D0006A95D2F721503040404050402E213F21B7
:1001E00040235123211531054105510521F021E01E
:1001F00030E040E050E079018A01E628F72808293C
:1002000019293CC0232BD1F1260E371E350146019A
:10021000062E04C096948794779467940A94D2F734
:1002200021E030E040E050E004C0220F331F441FC3
:10023000551F6A95D2F721503040404050402A2146
:100240003B214C215D21211531054105510521F04E
:1002500021E030E040E050E059016A01A628B728CB
:10026000C828D9280BC0821593052CF01C01AA249C
:10027000BB24650103C0EE24FF24870111969C91E5
:10028000D20111968C91981709F445C0992339F041
:10029000A80197012A193B094C095D0906C0A6016E
:1002A00095012E193F09400B510B57FD08C01182D3
:1002B0003382228224833583468357831DC081E0A5
:1002C00081833382228288279927DC01821B930B4A
:1002D000A40BB50B84839583A683B7830DC0220F2F
:1002E000331F441F551F24833583468357838281E0
:1002F000938101979383828324813581468157813D
:10030000DA01C9010197A109B1098F5F9F4FAF4F72
:10031000BF4328F30BC0918333822282EA0CFB1C7B
:100320000C1D1D1DE482F5820683178383E0808304
:10033000248135814681578157FF1AC0C901AA27F8
:1003400097FDA095BA2F81709070A070B0705695EF
:10035000479537952795822B932BA42BB52B848318
:100360009583A683B7838281938101969383828349
:10037000DF0101C0D201CD01CDB7DEB7E2E10C94BF
:10038000141DA0E2B0E0E7ECF1E00C94041D6983D9
:100390007A838B839C832D833E834F835887E9E048
:1003A000EE2EF12CEC0EFD1ECE010196B7010E943F
:1003B000D2048E010F5E1F4FCE010596B8010E9438
:1003C000D2048A8991E089278A8BC701B801AE01DE
:1003D000475E5F4F0E9475000E94FD03A096E6E015
:1003E0000C94201DA0E2B0E0E8EFF1E00C94041DB5
:1003F00069837A838B839C832D833E834F835887C5
:10040000F9E0EF2EF12CEC0EFD1ECE010196B701A6
:100410000E94D2048E010F5E1F4FCE010596B801D7
:100420000E94D204C701B801AE01475E5F4F0E942F
:1004300075000E94FD03A096E6E00C94201DA0E24A
:10044000B0E0E5E2F2E00C94F81C69837A838B83D8
:100450009C832D833E834F835887CE010196BE0136
:10046000675F7F4F0E94D204CE010596BE016F5E8A
:100470007F4F0E94D2049985923088F0898982301A
:10048000C8F0943019F4823051F404C0843029F457
:10049000923081F48AE890E0C6C0923049F420E0BE
:1004A0009A858A89981321E02A87CE010996BBC0D4
:1004B000823049F420E09A858A89981321E02A8BBA
:1004C000CE014196B0C02D843E844F8458886D88FB
:1004D0007E888F88988CEE24FF248701AA24BB2471
:1004E000650140E050E060E070E0E0E0F0E0C10174
:1004F00081709070892BE9F0E60CF71C081D191D1E
:100500009A01AB012A0D3B1D4C1D5D1D80E090E062
:10051000A0E0B0E0E614F7040805190520F481E036
:1005200090E0A0E0B0E0BA01A901480F591F6A1F8E
:100530007B1FAA0CBB1CCC1CDD1C97FE08C081E0F5
:1005400090E0A0E0B0E0A82AB92ACA2ADB2A3196B6
:10055000E032F10549F0660C771C881C991C569412
:10056000479437942794C3CFFA85EA892B893C892D
:100570008B859C85280F391F2E5F3F4F17C0CA01FE
:1005800081709070892B61F016950795F794E79428
:1005900080E090E0A0E0B0E8E82AF92A0A2B1B2BC3
:1005A00076956795579547952F5F3F4F77FDE7CF36
:1005B0000CC0440F551F661F771F17FD4160EE0CDE
:1005C000FF1C001F111F21503040403090E05907A0
:1005D00090E0690790E4790760F32B8F3C8FDB0193
:1005E000CA018F779070A070B07080349105A1051A
:1005F000B10561F447FD0AC0E114F10401051105DC
:1006000029F0405C5F4F6F4F7F4F40781A8EFE1786
:1006100011F081E08A8F4D8F5E8F6F8F78A383E01A
:10062000898FCE0149960E94FD03A096E2E10C94C9
:10063000141DA8E1B0E0EFE1F3E00C94041D698320
:100640007A838B839C832D833E834F83588789E0F5
:10065000E82EF12CEC0EFD1ECE010196B7010E9492
:10066000D2048E010F5E1F4FCE010596B8010E9485
:10067000D2048985823040F08989823028F0C70110
:10068000B8010E944A0501C08FEF6896E6E00C941D
:10069000201DA8E1B0E0EFE4F3E00C94041D6983B1
:1006A0007A838B839C832D833E834F83588789E095
:1006B000E82EF12CEC0EFD1ECE010196B7010E9432
:1006C000D2048E010F5E1F4FCE010596B8010E9425
:1006D000D2048985823040F08989823028F0C701B0
:1006E000B8010E944A0501C08FEF6896E6E00C94BD
:1006F000201DA8E1B0E0EFE7F3E00C94041D69834E
:100700007A838B839C832D833E834F83588789E034
:10071000E82EF12CEC0EFD1ECE010196B7010E94D1
:10072000D2048E010F5E1F4FCE010596B8010E94C4
:10073000D2048985823040F08989823028F0C7014F
:10074000B8010E944A0501C081E06896E6E00C9479
:10075000201DACE0B0E0EFEAF3E00C94081D6983E3
:100760007A838B839C83CE010196BE016B5F7F4FA2
:100770000E94D2048D81823061F1823050F1843048
:1007800021F48E81882351F12EC02F81388537FDC9
:1007900020C06E812F3131051CF06623F9F023C093
:1007A0008EE190E0821B930B29853A854B855C8511
:1007B00004C056954795379527958A95D2F76623B5
:1007C000B1F050954095309521953F4F4F4F5F4F79
:1007D0000EC020E030E040E050E009C02FEF3FEFD6
:1007E0004FEF5FE704C020E030E040E050E8B9019F
:1007F000CA012C96E2E00C94241DDF92EF92FF9246
:100800000F931F93FC01E480F58006811781D1804E
:100810008081823048F480E090E0A0E1B0E0E82AF6
:10082000F92A0A2B1B2BA5C0843009F49FC0823003
:1008300021F4EE24FF24870105C0E114F104010531
:10084000110519F4E0E0F0E096C0628173819FEF3A
:10085000623879070CF05BC022E83FEF261B370BAC
:100860002A3131052CF020E030E040E050E02AC091
:10087000B801A701022E04C0769567955795479554
:100880000A94D2F781E090E0A0E0B0E004C0880FC5
:10089000991FAA1FBB1F2A95D2F70197A109B10979
:1008A0008E219F21A023B1230097A105B10521F03E
:1008B00081E090E0A0E0B0E09A01AB01282B392B59
:1008C0004A2B5B2BDA01C9018F779070A070B07052
:1008D00080349105A105B10539F427FF09C0205CDA
:1008E0003F4F4F4F5F4F04C0215C3F4F4F4F5F4F13
:1008F000E0E0F0E02030A0E03A07A0E04A07A0E402
:100900005A0710F0E1E0F0E079018A0127C0603871
:10091000710564F5FB01E158FF4FD801C7018F77DE
:100920009070A070B07080349105A105B10539F4C4
:10093000E7FE0DC080E490E0A0E0B0E004C08FE3EB
:1009400090E0A0E0B0E0E80EF91E0A1F1B1F17FFA1
:1009500005C016950795F794E794319687E01695AC
:100960000795F794E7948A95D1F705C0EE24FF2404
:100970008701EFEFF0E06E2F679566276795902F60
:100980009F77D794DD24D7948E2F8695492F462BB9
:10099000582F5D29B701CA011F910F91FF90EF9069
:1009A000DF900895FC01DB01408151812281622F9B
:1009B0006F7770E0221F2227221F9381892F880FD3
:1009C000822B282F30E0991F9927991F11969C930D
:1009D000119721153105A9F54115510561057105DD
:1009E00011F482E037C082E89FEF13969C938E93B8
:1009F00012979A01AB0167E0220F331F441F551F66
:100A00006A95D1F783E08C930DC0220F331F441FEA
:100A1000551F12968D919C911397019713969C9355
:100A20008E931297203080E0380780E0480780E4FA
:100A3000580758F314962D933D934D935C93179755
:100A400008952F3F310579F4411551056105710570
:100A500019F484E08C93089564FF03C081E08C93C3
:100A600012C01C9210C02F57304013963C932E9307
:100A7000129783E08C9387E0440F551F661F771F02
:100A80008A95D1F7706414964D935D936D937C9322
:100A9000179708951F93DC01FB019C91923008F495
:100AA00047C08081823008F443C0943051F41196DD
:100AB0001C91843099F58181682F70E0611B710968
:100AC0003FC0843021F0923031F48230B9F181811D
:100AD000882389F12DC011961C9111978230F1F075
:100AE00081811817D9F412962D913C911397828128
:100AF00093818217930794F028173907BCF0149656
:100B00008D919D910D90BC91A02D248135814681C0
:100B10005781281739074A075B0718F4112341F05A
:100B20000AC082179307A407B50740F4112319F0F0
:100B300061E070E005C06FEF7FEF02C060E070E041
:100B4000CB011F910895DF93CF930F92CDB7DEB7FE
:100B500089838981982F917080E063E0492F0E94FA
:100B60000E0B89818695982F917080E064E0492F63
:100B70000E940E0B898186958695982F917080E052
:100B800065E0492F0E940E0B898186958695869592
:100B9000982F917080E066E0492F0E940E0B0F9015
:100BA000CF91DF910895DF93CF93CDB7DEB72E9726
:100BB0000FB6F894DEBF0FBECDBF80E062E041E02B
:100BC0000E940E0B80E090E0A0E0B0E48B879C8751
:100BD000AD87BE876B857C858D859E8520E030E066
:100BE0004AEF54E40E941F02DC01CB018F839887F7
:100BF000A987BA876F81788589859A8520E030E05A
:100C000040E85FE30E94790388232CF481E090E0C0
:100C10009E838D833FC06F81788589859A8520E08A
:100C20003FEF4FE757E40E94190318164CF56B8508
:100C30007C858D859E8520E030E040E251E40E9475
:100C40001F02DC01CB01BC01CD010E944900DC0187
:100C5000CB019E838D830FC088EC90E09C838B83B7
:100C60008B819C810197F1F79C838B838D819E8181
:100C700001979E838D838D819E81009769F714C0B3
:100C80006F81788589859A850E944900DC01CB01B6
:100C90009E838D838D819E819A83898389819A81A8
:100CA0000197F1F79A83898380E062E040E00E9437
:100CB0000E0B2E960FB6F894DEBF0FBECDBFCF91B0
:100CC000DF910895DF93CF930F92CDB7DEB789837D
:100CD00080E061E040E00E940E0B898182958F7078
:100CE0000E94A3050E94D30589810E94A3050E944A
:100CF000D3050F90CF91DF910895DF93CF930F929B
:100D0000CDB7DEB7898380E061E041E00E940E0B41
:100D1000898182958F700E94A3050E94D3058981E5
:100D20000E94A3050E94D3050F90CF91DF910895F3
:100D3000DF93CF93CDB7DEB72E970FB6F894DEBF13
:100D40000FBECDBF80E090E0A0E2B2E48B879C872D
:100D5000AD87BE876B857C858D859E8520E030E0E4
:100D60004AEF54E40E941F02DC01CB018F83988775
:100D7000A987BA876F81788589859A8520E030E0D8
:100D800040E85FE30E94790388232CF481E090E03F
:100D90009E838D833FC06F81788589859A8520E009
:100DA0003FEF4FE757E40E94190318164CF56B8587
:100DB0007C858D859E8520E030E040E251E40E94F4
:100DC0001F02DC01CB01BC01CD010E944900DC0106
:100DD000CB019E838D830FC088EC90E09C838B8336
:100DE0008B819C810197F1F79C838B838D819E8100
:100DF00001979E838D838D819E81009769F714C032
:100E00006F81788589859A850E944900DC01CB0134
:100E10009E838D838D819E819A83898389819A8126
:100E20000197F1F79A83898382E00E94A3050E94CB
:100E3000D30582E00E94A3050E94D30588E00E94AA
:100E4000A3050E94D3058CE00E94620681E00E9407
:100E500062062E960FB6F894DEBF0FBECDBFCF91BF
:100E6000DF910895DF93CF9300D00F92CDB7DEB717
:100E70009B838A8319828A819B81009789F00AC0AB
:100E8000EA81FB8180810E947D068A819B81019697
:100E90009B838A83EA81FB818081882389F702C052
:100EA00082E0898389810F900F900F90CF91DF911D
:100EB0000895DF93CF93CDB7DEB761970FB6F8945F
:100EC000DEBF0FBECDBF6E877F87888B998B1A825E
:100ED0008E859F85A889B9890097A105B10521F460
:100EE00080E30E947D0669C08E859F85A889B989A7
:100EF000BB230CF043C08DE20E947D068E859F854A
:100F0000A889B989B095A095909581959F4FAF4FCD
:100F1000BF4F8E879F87A88BB98B30C08E859F85EA
:100F2000A889B9892AE030E040E050E0BC01CD0159
:100F30000E94BB1CDC01CB018B838E859F85A88919
:100F4000B9892AE030E040E050E0BC01CD010E94C8
:100F5000BB1CDA01C9018E879F87A88BB98B8A8158
:100F6000282F30E08B81482F405DCE010496FC0194
:100F7000E20FF31F40838A818F5F8A838E859F856E
:100F8000A889B9890097A105B10541F68A818150E8
:100F9000898310C08981282F332727FD3095CE0102
:100FA0000496FC01E20FF31F80810E947D06898177
:100FB00081508983898188236CF761960FB6F894F4
:100FC000DEBF0FBECDBFCF91DF910895DF93CF93EA
:100FD00000D00F92CDB7DEB78A836B838B81882FC9
:100FE00090E00024969587950794969587950794A9
:100FF000982F802D982F8A81890F89838981806815
:10100000898389810E9462060F900F900F90CF9183
:10101000DF910895DF93CF93CDB7DEB728970FB652
:10102000F894DEBF0FBECDBF8C837E836D834F836C
:1010300028871B828D819E81009759F18C81882F92
:1010400090E0880F991F880F991F880F991F8A8336
:101050008A8180648A838A810E94620619820EC016
:101060008981282F30E08D819E81FC01E20FF31FE2
:1010700080810E947D0689818F5F89838981883084
:1010800078F38F8168850E94E6078C810E947D0637
:1010900002C082E08B838B8128960FB6F894DEBF66
:1010A0000FBECDBFCF91DF9108950F931F93DF93B4
:1010B000CF93CDB7DEB7E6970FB6F894DEBF0FBE7D
:1010C000CDBF8091AA00282F332727FD30953EAB56
:1010D0002DAB8DA99EA981309105A1F12DA93EA925
:1010E000223031052CF48DA99EA9009771F007C11B
:1010F0002DA93EA92230310509F441C08DA99EA930
:101100008330910509F45AC0FAC080919200909101
:101110009300A0919400B091950020919600309199
:1011200097004091980050919900820F931FA41F3F
:10113000B51F8093A6009093A700A093A800B0933A
:10114000A900DDC08091920090919300A09194003D
:10115000B0919500209196003091970040919800B1
:1011600050919900821B930BA40BB50B8093A600A2
:101170009093A700A093A800B093A900C0C080914D
:10118000920090919300A0919400B09195002091CD
:101190009600309197004091980050919900BC01C1
:1011A000CD010E949C1CDC01CB018093A600909392
:1011B000A700A093A800B093A900A1C080919200BD
:1011C00090919300A0919400B091950024E630E0B6
:1011D00040E050E0BC01CD010E949C1CDC01CB0131
:1011E000209196003091970040919800509199007D
:1011F000BC01CD010E94BB1CDA01C90189879A8715
:10120000AB87BC8789859A85AB85BC8524E630E0B1
:1012100040E050E0BC01CD010E94BB1CDA01C901D5
:101220008D839E83AF83B88789859A85AB85BC857E
:1012300024E630E040E050E0BC01CD010E94BB1C40
:10124000DC01CB0189839A83AB83BC838D819E8132
:101250009E012F5D3F4FB9010E948A0989819A81C1
:101260009E01255D3F4FB9010E948A098091A60029
:101270009091A700A091A800B091A9009E01235FC2
:101280003F4FB9010E948A09CE010D969E012F5D44
:101290003F4FB9010E94431D8E01035F1F4FCE01D6
:1012A0000D960E944A1D800F911F20E630E0B90183
:1012B00042E050E00E942F1DCE018B960E944A1DF5
:1012C0008130910581F48E01035F1F4FCE010D9691
:1012D0000E944A1D800F911F22E630E0B90142E0D2
:1012E00050E00E942F1DCE010D969E01255D3F4FBF
:1012F000B9010E94381DCE010D960E943207E69674
:101300000FB6F894DEBF0FBECDBFCF91DF911F9116
:101310000F910895DF93CF9300D000D0CDB7DEB703
:101320009A8389837C836B8300D000D000D0EDB793
:10133000FEB731968B819C819183808384E690E017
:101340009383828389819A81958384830E94531D2C
:101350008DB79EB706960FB6F8949EBF0FBE8DBF91
:101360000F900F900F900F90CF91DF910895DF9322
:10137000CF93CDB7DEB728970FB6F894DEBF0FBE78
:10138000CDBF8A836B834C8319828B81883008F0B0
:10139000F3C08C81882309F077C08A81282F30E040
:1013A00038872F838F8198858130910559F12F815E
:1013B0003885223031052CF48F819885009769F0AB
:1013C00060C02F8138852230310589F18F81988561
:1013D0008330910509F440C054C0AAE3B0E0EAE3C9
:1013E000F0E08081482F8B81282F30E081E090E071
:1013F000022E02C0880F991F0A94E2F78095842379
:101400008C93BAC0A7E3B0E0E7E3F0E08081482F17
:101410008B81282F30E081E090E0022E02C0880FFF
:10142000991F0A94E2F7809584238C93A5C0A4E3C6
:10143000B0E0E4E3F0E08081482F8B81282F30E09A
:1014400081E090E0022E02C0880F991F0A94E2F713
:10145000809584238C9390C0A1E3B0E0E1E3F0E0B9
:101460008081482F8B81282F30E081E090E0022E90
:1014700002C0880F991F0A94E2F7809584238C9309
:101480007BC081E0898378C08C81813009F072C093
:101490008A81282F30E03E832D838D819E8181308B
:1014A000910549F12D813E81223031052CF48D8149
:1014B0009E81009761F05BC02D813E812230310515
:1014C00071F18D819E8183309105E9F150C0AAE3CD
:1014D000B0E0EAE3F0E08081482F8B81282F30E0F4
:1014E00081E090E0022E02C0880F991F0A94E2F773
:1014F000842B8C9341C0A7E3B0E0E7E3F0E0808168
:10150000482F8B81282F30E081E090E0022E02C02E
:10151000880F991F0A94E2F7842B8C932DC0A4E3C3
:10152000B0E0E4E3F0E08081482F8B81282F30E0A9
:1015300081E090E0022E02C0880F991F0A94E2F722
:10154000842B8C9319C0A1E3B0E0E1E3F0E080814B
:10155000482F8B81282F30E081E090E0022E02C0DE
:10156000880F991F0A94E2F7842B8C9305C081E0C1
:10157000898302C081E08983898128960FB6F89417
:10158000DEBF0FBECDBFCF91DF910895DF93CF9324
:1015900000D000D00F92CDB7DEB78A836B8319825B
:1015A0008A81282F30E03D832C838C819D8181307E
:1015B0009105D1F02C813D81223031052CF48C81B4
:1015C0009D81009761F01FC02C813D812230310543
:1015D00081F08C819D818330910581F014C0EAE314
:1015E000F0E08B81808311C0E7E3F0E08B818083A2
:1015F0000CC0E4E3F0E08B81808307C0E1E3F0E01E
:101600008B81808302C081E0898389810F900F9054
:101610000F900F900F90CF91DF910895DF93CF93AC
:10162000CDB7DEB728970FB6F894DEBF0FBECDBF9B
:101630008A836B834C8319828B81883008F0F3C0D6
:101640008C81882309F077C08A81282F30E0388781
:101650002F838F8198858130910559F12F813885AD
:10166000223031052CF48F819885009769F060C095
:101670002F8138852230310589F18F81988583301B
:10168000910509F440C054C0ABE3B0E0EBE3F0E0F7
:101690008081482F8B81282F30E081E090E0022E5E
:1016A00002C0880F991F0A94E2F7809584238C93D7
:1016B000BAC0A8E3B0E0E8E3F0E08081482F8B8176
:1016C000282F30E081E090E0022E02C0880F991FA1
:1016D0000A94E2F7809584238C93A5C0A5E3B0E03B
:1016E000E5E3F0E08081482F8B81282F30E081E016
:1016F00090E0022E02C0880F991F0A94E2F78095AD
:1017000084238C9390C0A2E3B0E0E2E3F0E0808118
:10171000482F8B81282F30E081E090E0022E02C01C
:10172000880F991F0A94E2F7809584238C937BC0DD
:1017300081E0898378C08C81813009F072C08A8110
:10174000282F30E03E832D838D819E81813091054D
:1017500049F12D813E81223031052CF48D819E810D
:10176000009761F05BC02D813E812230310571F11F
:101770008D819E8183309105E9F150C0ABE3B0E0EB
:10178000EBE3F0E08081482F8B81282F30E081E06F
:1017900090E0022E02C0880F991F0A94E2F7842B72
:1017A0008C9341C0A8E3B0E0E8E3F0E08081482FEB
:1017B0008B81282F30E081E090E0022E02C0880F5C
:1017C000991F0A94E2F7842B8C932DC0A5E3B0E017
:1017D000E5E3F0E08081482F8B81282F30E081E025
:1017E00090E0022E02C0880F991F0A94E2F7842B22
:1017F0008C9319C0A2E3B0E0E2E3F0E08081482FCF
:101800008B81282F30E081E090E0022E02C0880F0B
:10181000991F0A94E2F7842B8C9305C081E0898399
:1018200002C081E08983898128960FB6F894DEBFD3
:101830000FBECDBFCF91DF910895DF93CF9300D03E
:1018400000D00F92CDB7DEB78A836B8319828A816D
:10185000282F30E03D832C838C819D818130910540
:10186000D1F02C813D81223031052CF48C819D8179
:10187000009761F01FC02C813D812230310581F03D
:101880008C819D818330910581F014C0EBE3F0E001
:101890008B81808311C0E8E3F0E08B8180830CC0F2
:1018A000E5E3F0E08B81808307C0E2E3F0E08B8129
:1018B000808302C081E0898389810F900F900F900F
:1018C0000F900F90CF91DF910895DF93CF93CDB715
:1018D000DEB727970FB6F894DEBF0FBECDBF8A8361
:1018E0006B835D834C8319828C819D81009709F401
:1018F0007BC08B81883008F074C08A81282F30E04B
:101900003F832E834E815F814130510559F18E8195
:101910009F818230910534F42E813F81211531055C
:1019200069F05CC04E815F814230510579F18E8152
:101930009F818330910509F43DC050C0E9E3F0E098
:101940008081282F30E08B81882F90E0A90102C090
:10195000559547958A95E2F7CA018170EC81FD8122
:10196000808344C0E6E3F0E08081282F30E08B8163
:10197000882F90E0A90102C0559547958A95E2F716
:10198000CA018170EC81FD81808330C0E3E3F0E027
:101990008081282F30E08B81882F90E0A90102C040
:1019A000559547958A95E2F7CA018170EC81FD81D2
:1019B00080831CC0E0E3F0E08081282F30E08B8141
:1019C000882F90E0A90102C0559547958A95E2F7C6
:1019D000CA018170EC81FD81808308C081E0898328
:1019E00005C081E0898302C082E0898389812796CE
:1019F0000FB6F894DEBF0FBECDBFCF91DF91089533
:101A0000DF93CF93CDB7DEB7EAE3F0E08EE78083D4
:101A1000E7E3F0E01082E4E3F0E01082E1E3F0E0DD
:101A20001082EBE3F0E01082E8E3F0E087E08083EF
:101A3000E5E3F0E01082E2E3F0E01082CF91DF9185
:101A400008950F931F93DF93CF93CDB7DEB7C651A1
:101A5000D1400FB6F894DEBF0FBECDBFCE018F5F71
:101A60009E4FCE5EDE4F99838883C251D1402EE9CE
:101A700030E0CC5EDE4F39832883C451D14038E05A
:101A8000CA5EDE4F3883C651D140CC5EDE4FE8815E
:101A9000F981C451D1400080CC5EDE4F288139816C
:101AA000C451D1402F5F3F4FCC5EDE4F3983288336
:101AB000C451D140CE5EDE4FE881F981C251D140A0
:101AC0000082CE5EDE4F28813981C251D1402F5F26
:101AD0003F4FCE5EDE4F39832883C251D140CA5E6C
:101AE000DE4F3881C651D1403150CA5EDE4F388357
:101AF000C651D140CA5EDE4F8881C651D14088238D
:101B000021F6FE01E050FF4F1082FE01E150FF4F31
:101B100081E08083FE01E250FF4F1082FE01E3501E
:101B2000FF4F10820E94000D0E9498068091920043
:101B300090919300A0919400B0919500BC01CD01CB
:101B40000E9459078BE20E947D0680919600909139
:101B50009700A0919800B0919900BC01CD010E941E
:101B600059079E012F5F3E4FFE01E050FF4FDE01FF
:101B7000A150BF4F80E0B90140812C910E940A081A
:101B80000C94921C9E01275F3E4F81E060E0A9010A
:101B90000E94650C9E01265F3E4F81E061E0A90135
:101BA0000E94650C9E01255F3E4F81E062E0A90125
:101BB0000E94650CFE01E75FFE4F8081882309F0DB
:101BC0002EC5FE01E050FF4F8081E82FF0E0C05F9E
:101BD000DE4FF983E883C051D140C05FDE4F2881DA
:101BE0003981C051D1402130310509F4C9C1C05FEC
:101BF000DE4F88819981C051D1408230910509F42E
:101C000094C2C05FDE4FE881F981C051D140309766
:101C100009F005C5FE01E050FF4FDE01A350BF4FA4
:101C200080816C910E94E6078091920090919300D0
:101C3000A0919400B09195000196A11DB11D8093D3
:101C4000920090939300A0939400B093950080919C
:101C5000920090919300A0919400B09195008A30E9
:101C60009105A105B10541F41092920010929300E4
:101C700010929400109295008091920090919300A0
:101C8000A0919400B0919500BC01CD010E9459072C
:101C900088E061E00E94E60787E690E00E94320754
:101CA000FE01E750FF4F80E090E0AAE7B3E48083B5
:101CB0009183A283B3838E010B501F4FFE01E75027
:101CC000FF4F608171818281938120E030E04AEF93
:101CD00054E40E941F02DC01CB01F8018083918350
:101CE000A283B383FE01EB50FF4F6081718182813B
:101CF000938120E030E040E85FE30E94790388238D
:101D000044F4FE01ED50FF4F81E090E09183808329
:101D100064C0FE01EB50FF4F60817181828193812D
:101D200020E03FEF4FE757E40E94190318160CF02C
:101D300043C0FE01E750FF4F608171818281938132
:101D400020E030E040E251E40E941F02DC01CB01C0
:101D50008E010D501F4FBC01CD010E944900DC01D6
:101D6000CB01F801918380831FC0FE01EF50FF4F2C
:101D700088EC90E091838083FE01EF50FF4F8081DB
:101D800091810197F1F7FE01EF50FF4F918380831E
:101D9000DE01AD50BF4FFE01ED50FF4F80819181BC
:101DA000019711969C938E93FE01ED50FF4F808119
:101DB00091810097D1F627C08E010D501F4FFE0173
:101DC000EB50FF4F60817181828193810E944900B5
:101DD000DC01CB01F80191838083DE01A151BF4F6B
:101DE000FE01ED50FF4F808191818D939C93FE0108
:101DF000E151FF4F808191810197F1F7FE01E1519F
:101E0000FF4F9183808388E061E00E94E6078AE6C5
:101E100090E00E943207FE01E551FF4F80E090E024
:101E2000AAE7B3E480839183A283B3838E0109512F
:101E30001F4FFE01E551FF4F6081718182819381C7
:101E400020E030E04AEF54E40E941F02DC01CB01A5
:101E5000F80180839183A283B383FE01E951FF4F90
:101E6000608171818281938120E030E040E85FE30E
:101E70000E947903882344F4FE01EB51FF4F81E077
:101E800090E09183808364C0FE01E951FF4F60813F
:101E900071818281938120E03FEF4FE757E40E94F8
:101EA000190318160CF043C0FE01E551FF4F608185
:101EB00071818281938120E030E040E251E40E9410
:101EC0001F02DC01CB018E010B511F4FBC01CD0164
:101ED0000E944900DC01CB01F801918380831FC07F
:101EE000FE01ED51FF4F88EC90E091838083FE016D
:101EF000ED51FF4F808191810197F1F7FE01ED5186
:101F0000FF4F91838083DE01AB51BF4FFE01EB5148
:101F1000FF4F80819181019711969C938E93FE01D2
:101F2000EB51FF4F808191810097D1F678C38E01EC
:101F30000B511F4FFE01E951FF4F6081718182817A
:101F400093810E944900DC01CB01F80191838083D9
:101F5000DE01AF51BF4FFE01EB51FF4F80819181F8
:101F600011969C938E93FE01EF51FF4F80819181DA
:101F70000197F1F7FE01EF51FF4F918380834FC32B
:101F8000FE01E050FF4FDE01A350BF4F80816C91F6
:101F90000E94E6078091AA008F5F8093AA0080913B
:101FA000AA00843011F41092AA008091AA00992707
:101FB00087FD9095FC01E656FF4F80810E947D06CB
:101FC000FE01E352FF4F80E090E0AAE7B3E4808394
:101FD0009183A283B3838E0107521F4FFE01E35208
:101FE000FF4F608171818281938120E030E04AEF70
:101FF00054E40E941F02DC01CB01F801808391832D
:10200000A283B383FE01E752FF4F60817181828119
:10201000938120E030E040E85FE30E947903882369
:1020200044F4FE01E952FF4F81E090E09183808308
:1020300064C0FE01E752FF4F60817181828193810C
:1020400020E03FEF4FE757E40E94190318160CF009
:1020500043C0FE01E352FF4F608171818281938111
:1020600020E030E040E251E40E941F02DC01CB019D
:102070008E0109521F4FBC01CD010E944900DC01B5
:10208000CB01F801918380831FC0FE01EB52FF4F0B
:1020900088EC90E091838083FE01EB52FF4F8081BA
:1020A00091810197F1F7FE01EB52FF4F91838083FD
:1020B000DE01A952BF4FFE01E952FF4F808191819D
:1020C000019711969C938E93FE01E952FF4F8081F8
:1020D00091810097D1F6A3C28E0109521F4FFE01D4
:1020E000E752FF4F60817181828193810E94490094
:1020F000DC01CB01F80191838083DE01AD52BF4F3B
:10210000FE01E952FF4F8081918111969C938E933D
:10211000FE01ED52FF4F808191810197F1F7FE01A1
:10212000ED52FF4F918380837AC2FE01E050FF4F52
:10213000DE01A350BF4F80816C910E94E607809121
:10214000960090919700A0919800B0919900019607
:10215000A11DB11D8093960090939700A0939800C5
:10216000B09399008091960090919700A09198006B
:10217000B09199008A309105A105B10541F4109202
:1021800096001092970010929800109299008091FA
:10219000960090919700A0919800B0919900BC0191
:1021A000CD010E9459078091AA00833071F480917B
:1021B000960090919700A0919800B0919900009797
:1021C000A105B10511F40C94921C88E061E00E9415
:1021D000E60787E690E00E943207FE01E153FF4FD9
:1021E00080E090E0AAE7B3E480839183A283B38385
:1021F0008E0105531F4FFE01E153FF4F6081718136
:102200008281938120E030E04AEF54E40E941F0273
:10221000DC01CB01F80180839183A283B383FE01AB
:10222000E553FF4F608171818281938120E030E02E
:1022300040E85FE30E947903882344F4FE01E753FA
:10224000FF4F81E090E09183808364C0FE01E553FD
:10225000FF4F608171818281938120E03FEF4FE7E2
:1022600057E40E94190318160CF043C0FE01E15315
:10227000FF4F608171818281938120E030E040E2F4
:1022800051E40E941F02DC01CB018E0107531F4F56
:10229000BC01CD010E944900DC01CB01F801918312
:1022A00080831FC0FE01E953FF4F88EC90E09183CB
:1022B0008083FE01E953FF4F808191810197F1F7FF
:1022C000FE01E953FF4F91838083DE01A753BF4F87
:1022D000FE01E753FF4F80819181019711969C93F6
:1022E0008E93FE01E753FF4F808191810097D1F6D5
:1022F00027C08E0107531F4FFE01E553FF4F60813A
:102300007181828193810E944900DC01CB01F80137
:1023100091838083DE01AB53BF4FFE01E753FF4F34
:10232000808191818D939C93FE01EB53FF4F8081BF
:1023300091810197F1F7FE01EB53FF4F9183808369
:1023400088E061E00E94E6078AE690E00E9432079A
:10235000FE01EF53FF4F80E090E0AAE7B3E48083F3
:102360009183A283B3838E0103541F4FFE01EF5369
:10237000FF4F608171818281938120E030E04AEFDC
:1023800054E40E941F02DC01CB01F8018083918399
:10239000A283B383FE01E354FF4F60817181828188
:1023A000938120E030E040E85FE30E9479038823D6
:1023B00044F4FE01E554FF4F81E090E09183808377
:1023C00064C0FE01E354FF4F60817181828193817B
:1023D00020E03FEF4FE757E40E94190318160CF076
:1023E00043C0FE01EF53FF4F608171818281938171
:1023F00020E030E040E251E40E941F02DC01CB010A
:102400008E0105541F4FBC01CD010E944900DC0123
:10241000CB01F801918380831FC0FE01E754FF4F79
:1024200088EC90E091838083FE01E754FF4F808128
:1024300091810197F1F7FE01E754FF4F918380836B
:10244000DE01A554BF4FFE01E554FF4F808191810D
:10245000019711969C938E93FE01E554FF4F808166
:1024600091810097D1F627C08E0105541F4FFE01C0
:10247000E354FF4F60817181828193810E94490002
:10248000DC01CB01F80191838083DE01A954BF4FA9
:10249000FE01E554FF4F808191818D939C93FE0155
:1024A000E954FF4F808191810197F1F7FE01E954D2
:1024B000FF4F91838083FE01ED54FF4F80E090E059
:1024C000AAE7B3E480839183A283B3838E0101558D
:1024D0001F4FFE01ED54FF4F608171818281938116
:1024E00020E030E04AEF54E40E941F02DC01CB01FF
:1024F000F80180839183A283B383FE01E155FF4FEE
:10250000608171818281938120E030E040E85FE367
:102510000E947903882344F4FE01E355FF4F81E0D4
:1025200090E09183808364C0FE01E155FF4F60819C
:1025300071818281938120E03FEF4FE757E40E9451
:10254000190318160CF043C0FE01ED54FF4F6081D3
:1025500071818281938120E030E040E251E40E9469
:102560001F02DC01CB018E0103551F4FBC01CD01C1
:102570000E944900DC01CB01F801918380831FC0D8
:10258000FE01E555FF4F88EC90E091838083FE01CA
:10259000E555FF4F808191810197F1F7FE01E555E7
:1025A000FF4F91838083DE01A355BF4FFE01E355AA
:1025B000FF4F80819181019711969C938E93FE012C
:1025C000E355FF4F808191810097D1F628C08E019D
:1025D00003551F4FFE01E155FF4F608171818281DC
:1025E00093810E944900DC01CB01F8019183808333
:1025F000DE01A755BF4FFE01E355FF4F808191815A
:1026000011969C938E93FE01E755FF4F8081918137
:102610000197F1F7FE01E755FF4F91838083FE019B
:10262000E65FFE4F8081882309F09CC4FE01E050E4
:10263000FF4F8081282F30E0C25FDE4F398328832F
:10264000CE50D140C25FDE4F88819981CE50D140BB
:102650008130910509F4E3C1C25FDE4FE881F98161
:10266000CE50D140E230F10509F4AFC2C25FDE4F77
:1026700028813981CE50D1402115310509F072C42D
:10268000FE01E250FF4FDE01A350BF4F80816C91ED
:102690000E94E6078091920090919300A09194008F
:1026A000B09195000197A109B10980939200909390
:1026B0009300A0939400B093950080919200909124
:1026C0009300A0919400B09195008F3F3FEF930746
:1026D0003FEFA3073FEFB30761F489E090E0A0E08C
:1026E000B0E08093920090939300A0939400B093F5
:1026F00095008091920090919300A0919400B091E8
:102700009500BC01CD010E9459078091AA00833039
:1027100071F48091960090919700A0919800B091EB
:1027200099000097A105B10511F40C94921C88E062
:1027300061E00E94E6078DE690E00E943207FE010C
:10274000EB55FF4F80E090E0AAE7B3E480839183EC
:10275000A283B3838E010F551F4FFE01EB55FF4F30
:10276000608171818281938120E030E04AEF54E4FE
:102770000E941F02DC01CB01F80180839183A283B8
:10278000B383FE01EF55FF4F608171818281938198
:1027900020E030E040E85FE30E947903882344F4BE
:1027A000FE01E156FF4F81E090E09183808364C099
:1027B000FE01EF55FF4F608171818281938120E09E
:1027C0003FEF4FE757E40E94190318160CF043C07F
:1027D000FE01EB55FF4F608171818281938120E082
:1027E00030E040E251E40E941F02DC01CB018E0187
:1027F00001561F4FBC01CD010E944900DC01CB01F5
:10280000F801918380831FC0FE01E356FF4F88ECDF
:1028100090E091838083FE01E356FF4F8081918198
:102820000197F1F7FE01E356FF4F91838083DE01AC
:10283000A156BF4FFE01E156FF4F80819181019764
:1028400011969C938E93FE01E156FF4F80819181FA
:102850000097D1F627C08E0101561F4FFE01EF559C
:10286000FF4F60817181828193810E944900DC0168
:10287000CB01F80191838083DE01A556BF4FFE0195
:10288000E156FF4F808191818D939C93FE01E55627
:10289000FF4F808191810197F1F7FE01E556FF4FCF
:1028A0009183808388E061E00E94E60782E790E000
:1028B0000E943207FE01E956FF4F80E090E0AAE750
:1028C000B3E480839183A283B3838E010D561F4F9F
:1028D000FE01E956FF4F608171818281938120E082
:1028E00030E04AEF54E40E941F02DC01CB01F80102
:1028F00080839183A283B383FE01ED56FF4F6081F5
:1029000071818281938120E030E040E85FE30E94A2
:102910007903882344F4FE01EF56FF4F81E090E0F5
:102920009183808364C0FE01ED56FF4F6081718109
:102930008281938120E03FEF4FE757E40E94190323
:1029400018160CF043C0FE01E956FF4F60817181FB
:102950008281938120E030E040E251E40E941F0236
:10296000DC01CB018E010F561F4FBC01CD010E942F
:102970004900DC01CB01F801918380831FC0FE0177
:10298000E157FF4F88EC90E091838083FE01E1578F
:10299000FF4F808191810197F1F7FE01E157FF4FD1
:1029A00091838083DE01AF56BF4FFE01EF56FF4F8C
:1029B00080819181019711969C938E93FE01EF5631
:1029C000FF4F808191810097D1F6CCC28E010F56C6
:1029D0001F4FFE01ED56FF4F60817181828193810F
:1029E0000E944900DC01CB01F80191838083DE0164
:1029F000A357BF4FFE01EF56FF4F80819181119683
:102A00009C938E93FE01E357FF4F80819181019744
:102A1000F1F7FE01E357FF4F91838083A3C2FE01CC
:102A2000E050FF4FDE01A350BF4F80816C910E94A8
:102A3000E6078091AA0081508093AA008091AA00A5
:102A40008F3F19F483E08093AA008091AA00992710
:102A500087FD9095FC01E656FF4F80810E947D0620
:102A6000FE01E757FF4F80E090E0AAE7B3E48083E0
:102A70009183A283B3838E010B571F4FFE01E7574B
:102A8000FF4F608171818281938120E030E04AEFC5
:102A900054E40E941F02DC01CB01F8018083918382
:102AA000A283B383FE01EB57FF4F60817181828166
:102AB000938120E030E040E85FE30E9479038823BF
:102AC00044F4FE01ED57FF4F81E090E09183808355
:102AD00064C0FE01EB57FF4F608171818281938159
:102AE00020E03FEF4FE757E40E94190318160CF05F
:102AF00043C0FE01E757FF4F60817181828193815E
:102B000020E030E040E251E40E941F02DC01CB01F2
:102B10008E010D571F4FBC01CD010E944900DC0101
:102B2000CB01F801918380831FC0FE01EF57FF4F57
:102B300088EC90E091838083FE01EF57FF4F808106
:102B400091810197F1F7FE01EF57FF4F9183808349
:102B5000DE01AD57BF4FFE01ED57FF4F80819181E0
:102B6000019711969C938E93FE01ED57FF4F808144
:102B700091810097D1F6F6C18E010D571F4FFE01CE
:102B8000EB57FF4F60817181828193810E944900E0
:102B9000DC01CB01F80191838083DE01A158BF4F96
:102BA000FE01ED57FF4F8081918111969C938E938A
:102BB000FE01E158FF4F808191810197F1F7FE01FD
:102BC000E158FF4F91838083CDC1FE01E050FF4F5C
:102BD000DE01A350BF4F80816C910E94E607809177
:102BE000960090919700A0919800B091990001975C
:102BF000A109B1098093960090939700A093980043
:102C0000B09399008091960090919700A0919800C0
:102C1000B09199008F3FFFEF9F07FFEFAF07FFEFE6
:102C2000BF0761F489E090E0A0E0B0E080939600F7
:102C300090939700A0939800B0939900809196008C
:102C400090919700A0919800B0919900BC01CD019E
:102C50000E9459078091AA00833069F48091960000
:102C600090919700A0919800B09199000097A105CC
:102C7000B10509F457C688E061E00E94E6078DE6D9
:102C800090E00E943207FE01E558FF4F80E090E09F
:102C9000AAE7B3E480839183A283B3838E010958AA
:102CA0001F4FFE01E558FF4F608171818281938142
:102CB00020E030E04AEF54E40E941F02DC01CB0127
:102CC000F80180839183A283B383FE01E958FF4F0B
:102CD000608171818281938120E030E040E85FE390
:102CE0000E947903882344F4FE01EB58FF4F81E0F2
:102CF00090E09183808364C0FE01E958FF4F6081BA
:102D000071818281938120E03FEF4FE757E40E9479
:102D1000190318160CF043C0FE01E558FF4F6081FF
:102D200071818281938120E030E040E251E40E9491
:102D30001F02DC01CB018E010B581F4FBC01CD01DE
:102D40000E944900DC01CB01F801918380831FC000
:102D5000FE01ED58FF4F88EC90E091838083FE01E7
:102D6000ED58FF4F808191810197F1F7FE01ED58F9
:102D7000FF4F91838083DE01AB58BF4FFE01EB58BC
:102D8000FF4F80819181019711969C938E93FE0154
:102D9000EB58FF4F808191810097D1F627C08E01BB
:102DA0000B581F4FFE01E958FF4F608171818281EE
:102DB00093810E944900DC01CB01F801918380835B
:102DC000DE01AF58BF4FFE01EB58FF4F808191816C
:102DD0008D939C93FE01EF58FF4F80819181019765
:102DE000F1F7FE01EF58FF4F9183808388E061E0A7
:102DF0000E94E60782E790E00E943207FE01E35955
:102E0000FF4F80E090E0AAE7B3E480839183A28340
:102E1000B3838E0107591F4FFE01E359FF4F6081B5
:102E200071818281938120E030E04AEF54E40E9476
:102E30001F02DC01CB01F80180839183A283B3835D
:102E4000FE01E759FF4F608171818281938120E00B
:102E500030E040E85FE30E947903882344F4FE01F8
:102E6000E959FF4F81E090E09183808364C0FE01C7
:102E7000E759FF4F608171818281938120E03FEFAC
:102E80004FE757E40E94190318160CF043C0FE01E7
:102E9000E359FF4F608171818281938120E030E0AE
:102EA00040E251E40E941F02DC01CB018E0109596E
:102EB0001F4FBC01CD010E944900DC01CB01F8018C
:102EC000918380831FC0FE01EB59FF4F88EC90E097
:102ED00091838083FE01EB59FF4F8081918101979F
:102EE000F1F7FE01EB59FF4F91838083DE01A95971
:102EF000BF4FFE01E959FF4F8081918101971196E3
:102F00009C938E93FE01E959FF4F80819181009738
:102F1000D1F628C08E0109591F4FFE01E759FF4F16
:102F200060817181828193810E944900DC01CB0123
:102F3000F80191838083DE01AD59BF4FFE01E9594D
:102F4000FF4F8081918111969C938E93FE01ED59E4
:102F5000FF4F808191810197F1F7FE01ED59FF4FFD
:102F600091838083FE01E55FFE4F8081882309F015
:102F7000D9C4FE01E050FF4F8081282F30E0C45FAC
:102F8000DE4F39832883CC50D140C45FDE4F888127
:102F90009981CC50D1408230910509F4D5C3C45FEA
:102FA000DE4FE881F981CC50D140E330F105A4F443
:102FB000C45FDE4F28813981CC50D14021153105C5
:102FC00001F1C45FDE4F88819981CC50D1408130BE
:102FD000910509F432C2A6C4C45FDE4FE881F981CD
:102FE000CC50D140E330F10509F4CAC3C45FDE4FD1
:102FF00028813981CC50D1402430310509F4DCC31B
:1030000091C480E061E00E94E60788E790E00E94BA
:103010003207DE01A050BF4FFE01E050FF4F80811C
:103020008F5F8C939E012F5F3E4FFE01E050FF4F5C
:10303000DE01A150BF4F80E0B90140812C910E9478
:103040000A08FE01E15AFF4F80E090E0AAE7B3E4EE
:1030500080839183A283B3838E01055A1F4FFE01A3
:10306000E15AFF4F608171818281938120E030E0DD
:103070004AEF54E40E941F02DC01CB01F801808377
:103080009183A283B383FE01E55AFF4F6081718172
:103090008281938120E030E040E85FE30E94790381
:1030A000882344F4FE01E75AFF4F81E090E09183CA
:1030B000808364C0FE01E55AFF4F60817181828187
:1030C000938120E03FEF4FE757E40E941903181661
:1030D0000CF043C0FE01E15AFF4F60817181828193
:1030E000938120E030E040E251E40E941F02DC01C5
:1030F000CB018E01075A1F4FBC01CD010E94490030
:10310000DC01CB01F801918380831FC0FE01E95AE5
:10311000FF4F88EC90E091838083FE01E95AFF4FD6
:10312000808191810197F1F7FE01E95AFF4F918368
:103130008083DE01A75ABF4FFE01E75AFF4F80810F
:103140009181019711969C938E93FE01E75AFF4F50
:10315000808191810097D1F627C08E01075A1F4FB9
:10316000FE01E55AFF4F60817181828193810E9447
:103170004900DC01CB01F80191838083DE01AB5A69
:10318000BF4FFE01E75AFF4F808191818D939C9341
:10319000FE01EB5AFF4F808191810197F1F7FE010B
:1031A000EB5AFF4F9183808388E061E00E94E6073D
:1031B0008AE790E00E943207FE01EF5AFF4F80E05D
:1031C00090E0AAE7B3E480839183A283B3838E0166
:1031D000035B1F4FFE01EF5AFF4F608171818281B7
:1031E000938120E030E04AEF54E40E941F02DC01AA
:1031F000CB01F80180839183A283B383FE01E35B5B
:10320000FF4F608171818281938120E030E040E84E
:103210005FE30E947903882344F4FE01E55BFF4FDE
:1032200081E090E09183808364C0FE01E35BFF4F07
:10323000608171818281938120E03FEF4FE757E405
:103240000E94190318160CF043C0FE01EF5AFF4FFD
:10325000608171818281938120E030E040E251E41D
:103260000E941F02DC01CB018E01055B1F4FBC01D8
:10327000CD010E944900DC01CB01F80191838083DC
:103280001FC0FE01E75BFF4F88EC90E091838083D5
:10329000FE01E75BFF4F808191810197F1F7FE010D
:1032A000E75BFF4F91838083DE01A55BBF4FFE018B
:1032B000E55BFF4F80819181019711969C938E93DE
:1032C000FE01E55BFF4F808191810097D1F627C019
:1032D0008E01055B1F4FFE01E35BFF4F6081718133
:1032E000828193810E944900DC01CB01F801918326
:1032F0008083DE01A95BBF4FFE01E55BFF4F80814C
:1033000091818D939C93FE01E95BFF4F80819181B8
:103310000197F1F7FE01E95BFF4F9183808388E01D
:1033200061E00E94E60782E790E00E943207FE011A
:10333000ED5BFF4F80E090E0AAE7B3E480839183E8
:10334000A283B3838E01015C1F4FFE01ED5BFF4F33
:10335000608171818281938120E030E04AEF54E402
:103360000E941F02DC01CB01F80180839183A283BC
:10337000B383FE01FF96608171818281938120E099
:1033800030E040E85FE30E94790388232CF481E079
:1033900090E09EAF8DAF46C0FE01FF9660817181C7
:1033A0008281938120E03FEF4FE757E40E941903A9
:1033B000181664F5FE01ED5BFF4F6081718182811B
:1033C000938120E030E040E251E40E941F02DC01E2
:1033D000CB01BC01CD010E944900DC01CB019EAFB5
:1033E0008DAF0FC088EC90E09CAF8BAF8BAD9CADE8
:1033F0000197F1F79CAF8BAF8DAD9EAD01979EAF5E
:103400008DAF8DAD9EAD009769F78CC2FE01FF9622
:1034100060817181828193810E944900DC01CB012E
:103420009EAF8DAF8DAD9EAD9AAF89AF89AD9AAD90
:103430000197F1F79AAF89AF75C281E061E00E9410
:10344000E60788E790E00E943207DE01A050BF4FF8
:10345000FE01E050FF4F80818F5F8C939E012F5FB4
:103460003E4FFE01E050FF4FDE01A150BF4F80E014
:10347000B90140812C910E940A0880E090E0AAE7FF
:10348000B3E48DAB9EABAFABB8AF6DA97EA98FA9EE
:1034900098AD20E030E04AEF54E40E941F02DC01C6
:1034A000CB0189AB9AABABABBCAB69A97AA98BA9B1
:1034B0009CA920E030E040E85FE30E947903882384
:1034C0002CF481E090E098AB8FA73FC069A97AA95E
:1034D0008BA99CA920E03FEF4FE757E40E94190316
:1034E00018164CF56DA97EA98FA998AD20E030E0A3
:1034F00040E251E40E941F02DC01CB01BC01CD017E
:103500000E944900DC01CB0198AB8FA70FC088EC6B
:1035100090E09EA78DA78DA59EA50197F1F79EA788
:103520008DA78FA598A9019798AB8FA78FA598A96C
:10353000009769F714C069A97AA98BA99CA90E9470
:103540004900DC01CB0198AB8FA78FA598A99CA758
:103550008BA78BA59CA50197F1F79CA78BA788E06B
:1035600061E00E94E6078AE790E00E94320780E06F
:1035700090E0AAE7B3E48FA398A7A9A7BAA76FA181
:1035800078A589A59AA520E030E04AEF54E40E948E
:103590001F02DC01CB018BA39CA3ADA3BEA36BA137
:1035A0007CA18DA19EA120E030E040E85FE30E9475
:1035B000790388232CF481E090E09AA389A33FC08B
:1035C0006BA17CA18DA19EA120E03FEF4FE757E4C6
:1035D0000E94190318164CF56FA178A589A59AA524
:1035E00020E030E040E251E40E941F02DC01CB0108
:1035F000BC01CD010E944900DC01CB019AA389A343
:103600000FC088EC90E098A38F8F8F8D98A10197C1
:10361000F1F798A38F8F89A19AA101979AA389A303
:1036200089A19AA1009769F714C06BA17CA18DA113
:103630009EA10E944900DC01CB019AA389A389A124
:103640009AA19E8F8D8F8D8D9E8D0197F1F79E8F04
:103650008D8F88E061E00E94E60782E790E00E949B
:10366000320780E090E0AAE7B3E4898F9A8FAB8FAE
:10367000BC8F698D7A8D8B8D9C8D20E030E04AEF78
:1036800054E40E941F02DC01CB018D8B9E8BAF8B1B
:10369000B88F6D897E898F89988D20E030E040E871
:1036A0005FE30E94790388232CF481E090E09C8BF7
:1036B0008B8B3FC06D897E898F89988D20E03FEF8D
:1036C0004FE757E40E94190318164CF5698D7A8D5F
:1036D0008B8D9C8D20E030E040E251E40E941F027F
:1036E000DC01CB01BC01CD010E944900DC01CB0112
:1036F0009C8B8B8B0FC088EC90E09A8B898B89898F
:103700009A890197F1F79A8B898B8B899C8901970C
:103710009C8B8B8B8B899C89009769F703C16D8982
:103720007E898F89988D0E944900DC01CB019C8B9A
:103730008B8B8B899C89988B8F878F859889019734
:10374000F1F7988B8F87EEC082E061E00E94E60778
:1037500088E790E00E943207DE01A050BF4FFE01D3
:10376000E050FF4F80818F5F8C93FE01E050FF4F50
:10377000DE01A350BF4F80816C910E94E607D2C04A
:103780008DE30E947D06DE01A050BF4FFE01E05098
:10379000FF4F80818F5F8C939E012F5F3E4FFE0114
:1037A000E050FF4FDE01A150BF4F80E0B9014081E2
:1037B0002C910E940A08B6C084E060E00E94E607EF
:1037C00080E890E00E943207FE01E050FF4FDE01EA
:1037D000A350BF4F80816C910E94E6070E9455085C
:1037E0008091AA00833061F08091A6009091A7009B
:1037F000A091A800B091A900BC01CD010E94590779
:1038000080E090E0AAEFB3E48B879C87AD87BE870A
:103810006B857C858D859E8520E030E04AEF54E401
:103820000E941F02DC01CB018F839887A987BA878A
:103830006F81788589859A8520E030E040E85FE3F4
:103840000E94790388232CF481E090E09E838D838D
:103850003FC06F81788589859A8520E03FEF4FE7EB
:1038600057E40E94190318164CF56B857C858D85ED
:103870009E8520E030E040E251E40E941F02DC011E
:10388000CB01BC01CD010E944900DC01CB019E832C
:103890008D830FC088EC90E09C838B838B819C810F
:1038A0000197F1F79C838B838D819E8101979E8385
:1038B0008D838D819E81009769F714C06F81788513
:1038C00089859A850E944900DC01CB019E838D8306
:1038D0008D819E819A83898389819A810197F1F7ED
:1038E0009A83898384E061E00E94E60788E790E09C
:1038F0000E943207FE01E050FF4F1082FE01E150AE
:10390000FF4F81E080839E012F5F3E4FFE01E0501C
:10391000FF4FDE01A150BF4F80E0B90140812C91E3
:103920000E940A08FE01E050FF4F8081853010F4AC
:103930000C94C20D0C94960D629FD001739FF00100
:10394000829FE00DF11D649FE00DF11D929FF00D2F
:10395000839FF00D749FF00D659FF00D9927729F66
:10396000B00DE11DF91F639FB00DE11DF91FBD01F1
:10397000CF011124089597FB092E05260ED057FD7F
:1039800004D014D00AD0001C38F4509540953095DE
:1039900021953F4F4F4F5F4F0895F6F790958095D3
:1039A000709561957F4F8F4F9F4F0895A1E21A2E1A
:1039B000AA1BBB1BFD010DC0AA1FBB1FEE1FFF1FD3
:1039C000A217B307E407F50720F0A21BB30BE40B23
:1039D000F50B661F771F881F991F1A9469F760956A
:1039E0007095809590959B01AC01BD01CF01089524
:1039F0002F923F924F925F926F927F928F929F92FF
:103A0000AF92BF92CF92DF92EF92FF920F931F93EC
:103A1000CF93DF93CDB7DEB7CA1BDB0B0FB6F8949D
:103A2000DEBF0FBECDBF09942A88398848885F84DD
:103A30006E847D848C849B84AA84B984C884DF804E
:103A4000EE80FD800C811B81AA81B981CE0FD11D32
:103A50000FB6F894DEBF0FBECDBFED010895FB0198
:103A6000DC0102C001900D9241505040D8F70895FA
:103A7000FB01DC010D900020E9F7119701900D92F8
:103A80000020E1F70895FB01DC0101900D92002078
:103A9000E1F70895FC0101900020E9F780959095E9
:103AA0008E0F9F1F0895AEE0B0E0E9E5FDE10C94B4
:103AB000061D0D891E8986E08C831A8309838FEF8A
:103AC0009FE79E838D839E01275E3F4FCE01019627
:103AD0006F89788DA9010E94771D2F813885020F8B
:103AE000131FF80110822E96E4E00C94221DABE027
:103AF000B0E0EDE7FDE10C94F81C3C012B015A010C
:103B0000FC0117821682838181FD03C06FEF7FEF76
:103B1000C6C19AE0892E1E010894211C311CF301B4
:103B20002381F20123FD859123FF81912F018823B9
:103B300009F4B2C1853239F423FD859123FF8191C7
:103B40002F01853229F490E0B3010E946A1FE7CF6C
:103B5000982FFF24EE249924FFE1FF15D0F09B322B
:103B600069F09C3228F4903259F0933291F40EC0EF
:103B70009D3249F0903369F441E024C052E0F52AC7
:103B800084E0F82A28C098E0F92A25C0E0E1FE2A5E
:103B900022C0F7FC29C0892F80538A3070F4F6FECA
:103BA00005C0989C902C1124980E15C0E89CE02C20
:103BB0001124E80EF0E2FF2A0EC09E3229F4F6FC32
:103BC0006BC140E4F42A07C09C3619F450E8F52A8A
:103BD00002C0983649F4F20123FD959123FF91919B
:103BE0002F01992309F0B8CF892F8554833018F01D
:103BF0008052833038F444E050E0A40EB51E5FE3F9
:103C000059830FC0933631F0933779F0933509F02B
:103C100056C020C0F5018081898342E050E0A40EA7
:103C2000B51E610101E010E012C0F501C080D18035
:103C3000F6FC03C06FEF7FEF02C0692D70E042E039
:103C400050E0A40EB51EC6010E945F1F8C015FE705
:103C5000F52214C0F501C080D180F6FC03C06FEFDF
:103C60007FEF02C0692D70E042E050E0A40EB51E67
:103C7000C6010E94541F8C0150E8F52AF3FE07C0CC
:103C80001AC080E290E0B3010E946A1FEA948E2D70
:103C900090E008171907A8F30EC0F601F7FC85910C
:103CA000F7FE81916F0190E0B3010E946A1FE1105D
:103CB000EA94015010400115110579F7EAC09436D5
:103CC00011F0993669F5F7FE08C0F50120813181C0
:103CD0004281538184E090E00AC0F50180819181A6
:103CE0009C01442737FD4095542F82E090E0A80EB8
:103CF000B91E9FE6F92257FF09C0509540953095AF
:103D000021953F4F4F4F5F4FE0E8FE2ACA01B901AE
:103D1000A1012AE030E00E94961FD82ED21840C0A0
:103D2000953729F41F2D1F7E2AE030E01DC01F2D7E
:103D3000197F9F3661F0903720F4983509F0ACC0B8
:103D40000FC0903739F0983709F0A6C004C028E0BA
:103D500030E00AC0106114FD146020E130E004C0BE
:103D600014FD166020E132E017FF08C0F501608104
:103D700071818281938144E050E008C0F501808127
:103D80009181BC0180E090E042E050E0A40EB51EBD
:103D9000A1010E94961FD82ED2188FE7F82EF1228B
:103DA000F6FE0BC05EEFF522D91438F4F4FE07C01E
:103DB000F2FC05C08FEEF82202C01D2D01C0192DA6
:103DC000F4FE0DC0FE01ED0DF11D8081803319F46C
:103DD00099EEF92208C01F5FF2FE05C003C08F2DC7
:103DE000867809F01F5F0F2DF3FC14C0F0FE0FC0A2
:103DF0001E1510F09D2C0BC09D2C9E0C911A1E2D93
:103E000006C080E290E0B3010E946A1F1F5F1E158A
:103E1000C0F304C01E1510F4E11A01C0EE2404FF23
:103E20000FC080E390E0B3010E946A1F02FF1DC033
:103E300001FD03C088E790E00EC088E590E00BC06C
:103E4000802F867891F001FF02C08BE201C080E2F2
:103E5000F7FC8DE290E0B3010E946A1F06C080E388
:103E600090E0B3010E946A1F9A94D914C0F3DA94C7
:103E7000F101ED0DF11D808190E0B3010E946A1FF8
:103E8000DD20A9F706C080E290E0B3010E946A1F1E
:103E9000EA94EE20C1F743CEF30166817781CB012E
:103EA0002B96E2E10C94141DFC01059061507040CA
:103EB0000110D8F7809590958E0F9F1F0895FC01F3
:103EC0006150704001900110D8F7809590958E0F49
:103ED0009F1F08950F931F93CF93DF938C01EB01E6
:103EE0008B8181FF1BC082FF0DC02E813F818C81A1
:103EF0009D812817390764F4E881F9810193F983DA
:103F0000E88306C0E885F985802F0995892B31F46F
:103F10008E819F8101969F838E8302C00FEF1FEFDA
:103F2000C801DF91CF911F910F910895FA01AA273F
:103F3000283051F1203181F1E8946F936E7F6E5FEC
:103F40007F4F8F4F9F4FAF4FB1E03ED0B4E03CD09A
:103F5000670F781F891F9A1FA11D680F791F8A1F7D
:103F6000911DA11D6A0F711D811D911DA11D20D0E4
:103F700009F468943F912AE0269F11243019305D9E
:103F80003193DEF6CF010895462F4770405D41938F
:103F9000B3E00FD0C9F7F6CF462F4F70405D4A33DC
:103FA00018F0495D31FD4052419302D0A9F7EACFA4
:103FB000B4E0A6959795879577956795BA95C9F7D3
:103FC00000976105710508959B01AC010A2E0694C6
:103FD0005795479537952795BA95C9F7620F731F7F
:0C3FE000841F951FA01D0895F894FFCFCA
:103FEC002E003000256400555000202000444F570F
:103FFC004E002020202020002000454E5445520029
:10400C002020202020202020200000000000000084
:10401C00000001000000010000002B2D2A2F040ECF
:06402C001F04040404005F
:00000001FF
